{"project/contracts/Marketplace.sol":{"Marketplace":{"abi":[{"inputs":[],"stateMutability":"nonpayable","type":"constructor"},{"inputs":[{"internalType":"address","name":"owner","type":"address"}],"name":"OwnableInvalidOwner","type":"error"},{"inputs":[{"internalType":"address","name":"account","type":"address"}],"name":"OwnableUnauthorizedAccount","type":"error"},{"inputs":[],"name":"ReentrancyGuardReentrantCall","type":"error"},{"anonymous":false,"inputs":[{"indexed":true,"internalType":"address","name":"buyer","type":"address"},{"indexed":true,"internalType":"address","name":"nftContract","type":"address"},{"indexed":true,"internalType":"uint256","name":"tokenId","type":"uint256"}],"name":"DeliveryConfirmed","type":"event"},{"anonymous":false,"inputs":[{"indexed":true,"internalType":"address","name":"seller","type":"address"},{"indexed":true,"internalType":"address","name":"nftContract","type":"address"},{"indexed":true,"internalType":"uint256","name":"tokenId","type":"uint256"}],"name":"DeliveryMarked","type":"event"},{"anonymous":false,"inputs":[{"indexed":true,"internalType":"address","name":"buyer","type":"address"},{"indexed":true,"internalType":"address","name":"nftContract","type":"address"},{"indexed":true,"internalType":"uint256","name":"tokenId","type":"uint256"}],"name":"DisputeRaised","type":"event"},{"anonymous":false,"inputs":[{"indexed":true,"internalType":"address","name":"nftContract","type":"address"},{"indexed":true,"internalType":"uint256","name":"tokenId","type":"uint256"},{"indexed":false,"internalType":"bool","name":"buyerWins","type":"bool"}],"name":"DisputeResolved","type":"event"},{"anonymous":false,"inputs":[{"indexed":true,"internalType":"address","name":"seller","type":"address"},{"indexed":true,"internalType":"address","name":"nftContract","type":"address"},{"indexed":true,"internalType":"uint256","name":"tokenId","type":"uint256"},{"indexed":false,"internalType":"uint256","name":"priceWei","type":"uint256"}],"name":"Listed","type":"event"},{"anonymous":false,"inputs":[{"indexed":true,"internalType":"address","name":"seller","type":"address"},{"indexed":true,"internalType":"address","name":"nftContract","type":"address"},{"indexed":true,"internalType":"uint256","name":"tokenId","type":"uint256"}],"name":"ListingCancelled","type":"event"},{"anonymous":false,"inputs":[{"indexed":true,"internalType":"address","name":"previousOwner","type":"address"},{"indexed":true,"internalType":"address","name":"newOwner","type":"address"}],"name":"OwnershipTransferred","type":"event"},{"anonymous":false,"inputs":[{"indexed":true,"internalType":"address","name":"buyer","type":"address"},{"indexed":true,"internalType":"address","name":"nftContract","type":"address"},{"indexed":true,"internalType":"uint256","name":"tokenId","type":"uint256"},{"indexed":false,"internalType":"uint256","name":"priceWei","type":"uint256"}],"name":"Purchased","type":"event"},{"anonymous":false,"inputs":[{"indexed":true,"internalType":"address","name":"buyer","type":"address"},{"indexed":true,"internalType":"address","name":"nftContract","type":"address"},{"indexed":true,"internalType":"uint256","name":"tokenId","type":"uint256"},{"indexed":false,"internalType":"uint256","name":"amount","type":"uint256"}],"name":"RefundIssued","type":"event"},{"anonymous":false,"inputs":[{"indexed":true,"internalType":"address","name":"buyer","type":"address"},{"indexed":true,"internalType":"address","name":"seller","type":"address"},{"indexed":true,"internalType":"address","name":"nftContract","type":"address"},{"indexed":false,"internalType":"uint256","name":"tokenId","type":"uint256"},{"indexed":false,"internalType":"uint256","name":"amount","type":"uint256"}],"name":"TransactionCompleted","type":"event"},{"inputs":[{"internalType":"address","name":"nftContract","type":"address"},{"internalType":"uint256","name":"tokenId","type":"uint256"}],"name":"autoRelease","outputs":[],"stateMutability":"nonpayable","type":"function"},{"inputs":[],"name":"autoReleaseTimeout","outputs":[{"internalType":"uint256","name":"","type":"uint256"}],"stateMutability":"view","type":"function"},{"inputs":[{"internalType":"address","name":"nftContract","type":"address"},{"internalType":"uint256","name":"tokenId","type":"uint256"}],"name":"buyItem","outputs":[],"stateMutability":"payable","type":"function"},{"inputs":[{"internalType":"address","name":"nftContract","type":"address"},{"internalType":"uint256","name":"tokenId","type":"uint256"}],"name":"cancelListing","outputs":[],"stateMutability":"nonpayable","type":"function"},{"inputs":[{"internalType":"address","name":"nftContract","type":"address"},{"internalType":"uint256","name":"tokenId","type":"uint256"}],"name":"confirmDelivery","outputs":[],"stateMutability":"nonpayable","type":"function"},{"inputs":[{"internalType":"address","name":"nftContract","type":"address"},{"internalType":"uint256","name":"tokenId","type":"uint256"}],"name":"emergencyRefund","outputs":[],"stateMutability":"nonpayable","type":"function"},{"inputs":[{"internalType":"address","name":"nftContract","type":"address"},{"internalType":"uint256","name":"tokenId","type":"uint256"}],"name":"getFullListingInfo","outputs":[{"internalType":"address","name":"seller","type":"address"},{"internalType":"uint256","name":"priceWei","type":"uint256"},{"internalType":"bool","name":"active","type":"bool"},{"internalType":"address","name":"buyer","type":"address"},{"internalType":"enum Marketplace.PurchaseStatus","name":"status","type":"uint8"},{"internalType":"uint256","name":"purchaseTime","type":"uint256"}],"stateMutability":"view","type":"function"},{"inputs":[{"internalType":"address","name":"nftContract","type":"address"},{"internalType":"uint256","name":"tokenId","type":"uint256"}],"name":"getListing","outputs":[{"internalType":"address","name":"seller","type":"address"},{"internalType":"uint256","name":"priceWei","type":"uint256"},{"internalType":"bool","name":"sold","type":"bool"}],"stateMutability":"view","type":"function"},{"inputs":[{"internalType":"uint256","name":"index","type":"uint256"}],"name":"getListingByIndex","outputs":[{"internalType":"address","name":"nftContract","type":"address"},{"internalType":"uint256","name":"tokenId","type":"uint256"},{"internalType":"address","name":"seller","type":"address"},{"internalType":"uint256","name":"priceWei","type":"uint256"},{"internalType":"bool","name":"sold","type":"bool"}],"stateMutability":"view","type":"function"},{"inputs":[{"internalType":"address","name":"nftContract","type":"address"},{"internalType":"uint256","name":"tokenId","type":"uint256"}],"name":"getPurchase","outputs":[{"internalType":"address","name":"buyer","type":"address"},{"internalType":"uint256","name":"amountPaid","type":"uint256"},{"internalType":"enum Marketplace.PurchaseStatus","name":"status","type":"uint8"},{"internalType":"uint256","name":"purchaseTime","type":"uint256"},{"internalType":"uint256","name":"deliveryTime","type":"uint256"},{"internalType":"uint256","name":"completionTime","type":"uint256"}],"stateMutability":"view","type":"function"},{"inputs":[{"internalType":"address","name":"nftContract","type":"address"},{"internalType":"uint256","name":"tokenId","type":"uint256"},{"internalType":"uint256","name":"priceWei","type":"uint256"}],"name":"listItem","outputs":[],"stateMutability":"nonpayable","type":"function"},{"inputs":[],"name":"listingCount","outputs":[{"internalType":"uint256","name":"","type":"uint256"}],"stateMutability":"view","type":"function"},{"inputs":[{"internalType":"address","name":"nftContract","type":"address"},{"internalType":"uint256","name":"tokenId","type":"uint256"}],"name":"markDelivered","outputs":[],"stateMutability":"nonpayable","type":"function"},{"inputs":[],"name":"owner","outputs":[{"internalType":"address","name":"","type":"address"}],"stateMutability":"view","type":"function"},{"inputs":[],"name":"platformFeeBps","outputs":[{"internalType":"uint256","name":"","type":"uint256"}],"stateMutability":"view","type":"function"},{"inputs":[{"internalType":"address","name":"nftContract","type":"address"},{"internalType":"uint256","name":"tokenId","type":"uint256"}],"name":"raiseDispute","outputs":[],"stateMutability":"nonpayable","type":"function"},{"inputs":[],"name":"renounceOwnership","outputs":[],"stateMutability":"nonpayable","type":"function"},{"inputs":[{"internalType":"address","name":"nftContract","type":"address"},{"internalType":"uint256","name":"tokenId","type":"uint256"},{"internalType":"bool","name":"buyerWins","type":"bool"}],"name":"resolveDispute","outputs":[],"stateMutability":"nonpayable","type":"function"},{"inputs":[{"internalType":"uint256","name":"newTimeout","type":"uint256"}],"name":"setAutoReleaseTimeout","outputs":[],"stateMutability":"nonpayable","type":"function"},{"inputs":[{"internalType":"uint256","name":"newFeeBps","type":"uint256"}],"name":"setPlatformFee","outputs":[],"stateMutability":"nonpayable","type":"function"},{"inputs":[],"name":"totalFeesCollected","outputs":[{"internalType":"uint256","name":"","type":"uint256"}],"stateMutability":"view","type":"function"},{"inputs":[{"internalType":"address","name":"newOwner","type":"address"}],"name":"transferOwnership","outputs":[],"stateMutability":"nonpayable","type":"function"},{"inputs":[],"name":"withdrawFees","outputs":[],"stateMutability":"nonpayable","type":"function"}],"evm":{"bytecode":{"linkReferences":{},"object":"608060405260fa60055562093a806007553480156200001c575f80fd5b50335f73ffffffffffffffffffffffffffffffffffffffff168173ffffffffffffffffffffffffffffffffffffffff160362000091575f6040517f1e4fbdf7000000000000000000000000000000000000000000000000000000008152600401620000889190620001b4565b60405180910390fd5b620000a281620000b060201b60201c565b5060018081905550620001cf565b5f805f9054906101000a900473ffffffffffffffffffffffffffffffffffffffff169050815f806101000a81548173ffffffffffffffffffffffffffffffffffffffff021916908373ffffffffffffffffffffffffffffffffffffffff1602179055508173ffffffffffffffffffffffffffffffffffffffff168173ffffffffffffffffffffffffffffffffffffffff167f8be0079c531659141344cd1fd0a4f28419497f9722a3daafe3b4186f6b6457e060405160405180910390a35050565b5f73ffffffffffffffffffffffffffffffffffffffff82169050919050565b5f6200019c8262000171565b9050919050565b620001ae8162000190565b82525050565b5f602082019050620001c95f830184620001a3565b92915050565b6142cc80620001dd5f395ff3fe60806040526004361061013f575f3560e01c80638da5cb5b116100b5578063b82eb9f81161006e578063b82eb9f81461040b578063bb6339231461044b578063c9754f1a14610473578063e21e25801461049b578063f2fde38b146104c5578063fb20190a146104ed5761013f565b80638da5cb5b1461030a57806395306532146103345780639f37092a14610375578063a9b07c2614610391578063b2ddee06146103bb578063b6b9ad03146103e35761013f565b806360c6d8ae1161010757806360c6d8ae1461021457806367f8a8b81461023e578063715018a6146102665780637814ebe61461027c57806388700d1c146102a457806389bfd38f146102e25761013f565b806312e8e2c31461014357806316eddaee1461016b57806322dcd13e146101935780632a2a92cc146101bd578063476343ee146101fe575b5f80fd5b34801561014e575f80fd5b506101696004803603810190610164919061320c565b610515565b005b348015610176575f80fd5b50610191600480360381019061018c9190613291565b61056c565b005b34801561019e575f80fd5b506101a7610770565b6040516101b491906132de565b60405180910390f35b3480156101c8575f80fd5b506101e360048036038101906101de9190613291565b610776565b6040516101f596959493929190613379565b60405180910390f35b348015610209575f80fd5b50610212610893565b005b34801561021f575f80fd5b506102286109ad565b60405161023591906132de565b60405180910390f35b348015610249575f80fd5b50610264600480360381019061025f9190613291565b6109b3565b005b348015610271575f80fd5b5061027a610c5f565b005b348015610287575f80fd5b506102a2600480360381019061029d9190613291565b610c72565b005b3480156102af575f80fd5b506102ca60048036038101906102c59190613291565b611063565b6040516102d9939291906133f2565b60405180910390f35b3480156102ed575f80fd5b5061030860048036038101906103039190613427565b61128f565b005b348015610315575f80fd5b5061031e6117d6565b60405161032b9190613477565b60405180910390f35b34801561033f575f80fd5b5061035a60048036038101906103559190613291565b6117fd565b60405161036c96959493929190613490565b60405180910390f35b61038f600480360381019061038a9190613291565b6119b1565b005b34801561039c575f80fd5b506103a5611d0e565b6040516103b291906132de565b60405180910390f35b3480156103c6575f80fd5b506103e160048036038101906103dc9190613291565b611d1a565b005b3480156103ee575f80fd5b5061040960048036038101906104049190613291565b611fe7565b005b348015610416575f80fd5b50610431600480360381019061042c919061320c565b61246a565b6040516104429594939291906134ef565b60405180910390f35b348015610456575f80fd5b50610471600480360381019061046c9190613291565b61273a565b005b34801561047e575f80fd5b506104996004803603810190610494919061356a565b612981565b005b3480156104a6575f80fd5b506104af612f23565b6040516104bc91906132de565b60405180910390f35b3480156104d0575f80fd5b506104eb60048036038101906104e691906135ba565b612f29565b005b3480156104f8575f80fd5b50610513600480360381019061050e919061320c565b612fad565b005b61051d613005565b6103e8811115610562576040517f08c379a00000000000000000000000000000000000000000000000000000000081526004016105599061363f565b60405180910390fd5b8060058190555050565b61057461308c565b5f61057f83836130d2565b90505f60035f8381526020019081526020015f2090503373ffffffffffffffffffffffffffffffffffffffff16815f015f9054906101000a900473ffffffffffffffffffffffffffffffffffffffff1673ffffffffffffffffffffffffffffffffffffffff1614610625576040517f08c379a000000000000000000000000000000000000000000000000000000000815260040161061c906136a7565b60405180910390fd5b6001600581111561063957610638613306565b5b816002015f9054906101000a900460ff16600581111561065c5761065b613306565b5b148061069c57506002600581111561067757610676613306565b5b816002015f9054906101000a900460ff16600581111561069a57610699613306565b5b145b6106db576040517f08c379a00000000000000000000000000000000000000000000000000000000081526004016106d29061370f565b60405180910390fd5b6005816002015f6101000a81548160ff0219169083600581111561070257610701613306565b5b0217905550828473ffffffffffffffffffffffffffffffffffffffff163373ffffffffffffffffffffffffffffffffffffffff167fe64f7ad65d89337c4a8e0a184107b60e148188a40b245de26ff7881762f111e860405160405180910390a4505061076c613104565b5050565b60055481565b5f805f805f805f61078789896130d2565b90505f60035f8381526020019081526020015f206040518060c00160405290815f82015f9054906101000a900473ffffffffffffffffffffffffffffffffffffffff1673ffffffffffffffffffffffffffffffffffffffff1673ffffffffffffffffffffffffffffffffffffffff16815260200160018201548152602001600282015f9054906101000a900460ff16600581111561082857610827613306565b5b600581111561083a57610839613306565b5b815260200160038201548152602001600482015481526020016005820154815250509050805f015181602001518260400151836060015184608001518560a0015197509750975097509750975050509295509295509295565b61089b613005565b6108a361308c565b5f60065490505f81116108eb576040517f08c379a00000000000000000000000000000000000000000000000000000000081526004016108e290613777565b60405180910390fd5b5f6006819055505f6108fb6117d6565b73ffffffffffffffffffffffffffffffffffffffff168260405161091e906137c2565b5f6040518083038185875af1925050503d805f8114610958576040519150601f19603f3d011682016040523d82523d5f602084013e61095d565b606091505b50509050806109a1576040517f08c379a000000000000000000000000000000000000000000000000000000000815260040161099890613820565b60405180910390fd5b50506109ab613104565b565b60065481565b6109bb613005565b6109c361308c565b5f6109ce83836130d2565b90505f60025f8381526020019081526020015f2090505f60035f8481526020019081526020015f20905060016005811115610a0c57610a0b613306565b5b816002015f9054906101000a900460ff166005811115610a2f57610a2e613306565b5b1480610a6f575060026005811115610a4a57610a49613306565b5b816002015f9054906101000a900460ff166005811115610a6d57610a6c613306565b5b145b610aae576040517f08c379a0000000000000000000000000000000000000000000000000000000008152600401610aa59061370f565b60405180910390fd5b6004816002015f6101000a81548160ff02191690836005811115610ad557610ad4613306565b5b02179055505f826002015f6101000a81548160ff0219169083151502179055505f815f015f9054906101000a900473ffffffffffffffffffffffffffffffffffffffff1673ffffffffffffffffffffffffffffffffffffffff168260010154604051610b40906137c2565b5f6040518083038185875af1925050503d805f8114610b7a576040519150601f19603f3d011682016040523d82523d5f602084013e610b7f565b606091505b5050905080610bc3576040517f08c379a0000000000000000000000000000000000000000000000000000000008152600401610bba90613888565b60405180910390fd5b848673ffffffffffffffffffffffffffffffffffffffff16835f015f9054906101000a900473ffffffffffffffffffffffffffffffffffffffff1673ffffffffffffffffffffffffffffffffffffffff167ff3c3f4a2eb620d4906d0e71a853aed5e409c62169a0d72b7bf57e54edbec81528560010154604051610c4791906132de565b60405180910390a450505050610c5b613104565b5050565b610c67613005565b610c705f61310d565b565b610c7a61308c565b5f610c8583836130d2565b90505f60025f8381526020019081526020015f2090505f60035f8481526020019081526020015f20905060026005811115610cc357610cc2613306565b5b816002015f9054906101000a900460ff166005811115610ce657610ce5613306565b5b14610d26576040517f08c379a0000000000000000000000000000000000000000000000000000000008152600401610d1d906138f0565b60405180910390fd5b6007548160040154610d38919061393b565b421015610d7a576040517f08c379a0000000000000000000000000000000000000000000000000000000008152600401610d71906139b8565b60405180910390fd5b6003816002015f6101000a81548160ff02191690836005811115610da157610da0613306565b5b02179055504281600501819055505f826002015f6101000a81548160ff0219169083151502179055505f6127106005548360010154610de091906139d6565b610dea9190613a44565b90505f818360010154610dfd9190613a74565b90508160065f828254610e10919061393b565b925050819055508673ffffffffffffffffffffffffffffffffffffffff166342842e0e855f015f9054906101000a900473ffffffffffffffffffffffffffffffffffffffff16855f015f9054906101000a900473ffffffffffffffffffffffffffffffffffffffff16896040518463ffffffff1660e01b8152600401610e9893929190613aa7565b5f604051808303815f87803b158015610eaf575f80fd5b505af1158015610ec1573d5f803e3d5ffd5b505050505f845f015f9054906101000a900473ffffffffffffffffffffffffffffffffffffffff1673ffffffffffffffffffffffffffffffffffffffff1682604051610f0c906137c2565b5f6040518083038185875af1925050503d805f8114610f46576040519150601f19603f3d011682016040523d82523d5f602084013e610f4b565b606091505b5050905080610f8f576040517f08c379a0000000000000000000000000000000000000000000000000000000008152600401610f8690613b26565b60405180910390fd5b8773ffffffffffffffffffffffffffffffffffffffff16855f015f9054906101000a900473ffffffffffffffffffffffffffffffffffffffff1673ffffffffffffffffffffffffffffffffffffffff16855f015f9054906101000a900473ffffffffffffffffffffffffffffffffffffffff1673ffffffffffffffffffffffffffffffffffffffff167fb425e3970f4f24b813eb760a2af6bf5f865b81a725fa116350720ef99340a70d8a86604051611049929190613b44565b60405180910390a450505050505061105f613104565b5050565b5f805f8061107186866130d2565b90505f60025f8381526020019081526020015f206040518060600160405290815f82015f9054906101000a900473ffffffffffffffffffffffffffffffffffffffff1673ffffffffffffffffffffffffffffffffffffffff1673ffffffffffffffffffffffffffffffffffffffff16815260200160018201548152602001600282015f9054906101000a900460ff16151515158152505090505f60035f8481526020019081526020015f206040518060c00160405290815f82015f9054906101000a900473ffffffffffffffffffffffffffffffffffffffff1673ffffffffffffffffffffffffffffffffffffffff1673ffffffffffffffffffffffffffffffffffffffff16815260200160018201548152602001600282015f9054906101000a900460ff1660058111156111a9576111a8613306565b5b60058111156111bb576111ba613306565b5b8152602001600382015481526020016004820154815260200160058201548152505090505f600360058111156111f4576111f3613306565b5b8260400151600581111561120b5761120a613306565b5b148061123f57506001600581111561122657611225613306565b5b8260400151600581111561123d5761123c613306565b5b145b8061127257506002600581111561125957611258613306565b5b826040015160058111156112705761126f613306565b5b145b9050825f0151836020015182965096509650505050509250925092565b61129761308c565b5f73ffffffffffffffffffffffffffffffffffffffff168373ffffffffffffffffffffffffffffffffffffffff1603611305576040517f08c379a00000000000000000000000000000000000000000000000000000000081526004016112fc90613bb5565b60405180910390fd5b5f8111611347576040517f08c379a000000000000000000000000000000000000000000000000000000000815260040161133e90613c1d565b60405180910390fd5b5f8390503373ffffffffffffffffffffffffffffffffffffffff168173ffffffffffffffffffffffffffffffffffffffff16636352211e856040518263ffffffff1660e01b815260040161139b91906132de565b602060405180830381865afa1580156113b6573d5f803e3d5ffd5b505050506040513d601f19601f820116820180604052508101906113da9190613c4f565b73ffffffffffffffffffffffffffffffffffffffff1614611430576040517f08c379a000000000000000000000000000000000000000000000000000000000815260040161142790613cc4565b60405180910390fd5b8073ffffffffffffffffffffffffffffffffffffffff1663e985e9c533306040518363ffffffff1660e01b815260040161146b929190613ce2565b602060405180830381865afa158015611486573d5f803e3d5ffd5b505050506040513d601f19601f820116820180604052508101906114aa9190613d1d565b8061155757503073ffffffffffffffffffffffffffffffffffffffff168173ffffffffffffffffffffffffffffffffffffffff1663081812fc856040518263ffffffff1660e01b815260040161150091906132de565b602060405180830381865afa15801561151b573d5f803e3d5ffd5b505050506040513d601f19601f8201168201806040525081019061153f9190613c4f565b73ffffffffffffffffffffffffffffffffffffffff16145b611596576040517f08c379a000000000000000000000000000000000000000000000000000000000815260040161158d90613d92565b60405180910390fd5b5f6115a185856130d2565b90505f60025f8381526020019081526020015f209050806002015f9054906101000a900460ff1615611608576040517f08c379a00000000000000000000000000000000000000000000000000000000081526004016115ff90613dfa565b60405180910390fd5b60405180606001604052803373ffffffffffffffffffffffffffffffffffffffff1681526020018581526020016001151581525060025f8481526020019081526020015f205f820151815f015f6101000a81548173ffffffffffffffffffffffffffffffffffffffff021916908373ffffffffffffffffffffffffffffffffffffffff160217905550602082015181600101556040820151816002015f6101000a81548160ff021916908315150217905550905050600460405180604001604052808873ffffffffffffffffffffffffffffffffffffffff16815260200187815250908060018154018082558091505060019003905f5260205f2090600202015f909190919091505f820151815f015f6101000a81548173ffffffffffffffffffffffffffffffffffffffff021916908373ffffffffffffffffffffffffffffffffffffffff160217905550602082015181600101555050848673ffffffffffffffffffffffffffffffffffffffff163373ffffffffffffffffffffffffffffffffffffffff167fd9d69fee247951cc283dc6f5b64c36ce396a36146405a798b86ebfd113c8b5ca876040516117be91906132de565b60405180910390a45050506117d1613104565b505050565b5f805f9054906101000a900473ffffffffffffffffffffffffffffffffffffffff16905090565b5f805f805f805f61180e89896130d2565b90505f60025f8381526020019081526020015f206040518060600160405290815f82015f9054906101000a900473ffffffffffffffffffffffffffffffffffffffff1673ffffffffffffffffffffffffffffffffffffffff1673ffffffffffffffffffffffffffffffffffffffff16815260200160018201548152602001600282015f9054906101000a900460ff16151515158152505090505f60035f8481526020019081526020015f206040518060c00160405290815f82015f9054906101000a900473ffffffffffffffffffffffffffffffffffffffff1673ffffffffffffffffffffffffffffffffffffffff1673ffffffffffffffffffffffffffffffffffffffff16815260200160018201548152602001600282015f9054906101000a900460ff16600581111561194657611945613306565b5b600581111561195857611957613306565b5b815260200160038201548152602001600482015481526020016005820154815250509050815f015182602001518360400151835f0151846040015185606001519850985098509850985098505050509295509295509295565b6119b961308c565b5f6119c483836130d2565b90505f60025f8381526020019081526020015f2090505f60035f8481526020019081526020015f2090505f73ffffffffffffffffffffffffffffffffffffffff16825f015f9054906101000a900473ffffffffffffffffffffffffffffffffffffffff1673ffffffffffffffffffffffffffffffffffffffff1603611a7e576040517f08c379a0000000000000000000000000000000000000000000000000000000008152600401611a7590613e62565b60405180910390fd5b816002015f9054906101000a900460ff16611ace576040517f08c379a0000000000000000000000000000000000000000000000000000000008152600401611ac590613eca565b60405180910390fd5b5f6005811115611ae157611ae0613306565b5b816002015f9054906101000a900460ff166005811115611b0457611b03613306565b5b14611b44576040517f08c379a0000000000000000000000000000000000000000000000000000000008152600401611b3b90613f32565b60405180910390fd5b81600101543414611b8a576040517f08c379a0000000000000000000000000000000000000000000000000000000008152600401611b8190613f9a565b60405180910390fd5b815f015f9054906101000a900473ffffffffffffffffffffffffffffffffffffffff1673ffffffffffffffffffffffffffffffffffffffff163373ffffffffffffffffffffffffffffffffffffffff1603611c1a576040517f08c379a0000000000000000000000000000000000000000000000000000000008152600401611c1190614002565b60405180910390fd5b33815f015f6101000a81548173ffffffffffffffffffffffffffffffffffffffff021916908373ffffffffffffffffffffffffffffffffffffffff1602179055503481600101819055506001816002015f6101000a81548160ff02191690836005811115611c8b57611c8a613306565b5b0217905550428160030181905550838573ffffffffffffffffffffffffffffffffffffffff163373ffffffffffffffffffffffffffffffffffffffff167fa326259ec721617acd3cb2a00bcbeac91eefe409880e49aa2bbf473ed648da4934604051611cf791906132de565b60405180910390a4505050611d0a613104565b5050565b5f600480549050905090565b611d2261308c565b5f611d2d83836130d2565b90505f60025f8381526020019081526020015f2090505f60035f8481526020019081526020015f206040518060c00160405290815f82015f9054906101000a900473ffffffffffffffffffffffffffffffffffffffff1673ffffffffffffffffffffffffffffffffffffffff1673ffffffffffffffffffffffffffffffffffffffff16815260200160018201548152602001600282015f9054906101000a900460ff166005811115611de257611de1613306565b5b6005811115611df457611df3613306565b5b8152602001600382015481526020016004820154815260200160058201548152505090503373ffffffffffffffffffffffffffffffffffffffff16825f015f9054906101000a900473ffffffffffffffffffffffffffffffffffffffff1673ffffffffffffffffffffffffffffffffffffffff1614611ea8576040517f08c379a0000000000000000000000000000000000000000000000000000000008152600401611e9f9061406a565b60405180910390fd5b816002015f9054906101000a900460ff16611ef8576040517f08c379a0000000000000000000000000000000000000000000000000000000008152600401611eef90613eca565b60405180910390fd5b5f6005811115611f0b57611f0a613306565b5b81604001516005811115611f2257611f21613306565b5b14611f62576040517f08c379a0000000000000000000000000000000000000000000000000000000008152600401611f5990613f32565b60405180910390fd5b5f826002015f6101000a81548160ff021916908315150217905550838573ffffffffffffffffffffffffffffffffffffffff163373ffffffffffffffffffffffffffffffffffffffff167fe1bfe61cb157e0896411ccf9a5c40e4c346f7bb6e1d2a44de4a724f0cb5c6fb060405160405180910390a4505050611fe3613104565b5050565b611fef61308c565b5f611ffa83836130d2565b90505f60025f8381526020019081526020015f2090505f60035f8481526020019081526020015f2090503373ffffffffffffffffffffffffffffffffffffffff16815f015f9054906101000a900473ffffffffffffffffffffffffffffffffffffffff1673ffffffffffffffffffffffffffffffffffffffff16146120b4576040517f08c379a00000000000000000000000000000000000000000000000000000000081526004016120ab906136a7565b60405180910390fd5b600160058111156120c8576120c7613306565b5b816002015f9054906101000a900460ff1660058111156120eb576120ea613306565b5b148061212b57506002600581111561210657612105613306565b5b816002015f9054906101000a900460ff16600581111561212957612128613306565b5b145b61216a576040517f08c379a00000000000000000000000000000000000000000000000000000000081526004016121619061370f565b60405180910390fd5b6003816002015f6101000a81548160ff0219169083600581111561219157612190613306565b5b02179055504281600501819055505f826002015f6101000a81548160ff0219169083151502179055505f61271060055483600101546121d091906139d6565b6121da9190613a44565b90505f8183600101546121ed9190613a74565b90508160065f828254612200919061393b565b925050819055508673ffffffffffffffffffffffffffffffffffffffff166342842e0e855f015f9054906101000a900473ffffffffffffffffffffffffffffffffffffffff1633896040518463ffffffff1660e01b815260040161226693929190613aa7565b5f604051808303815f87803b15801561227d575f80fd5b505af115801561228f573d5f803e3d5ffd5b505050505f845f015f9054906101000a900473ffffffffffffffffffffffffffffffffffffffff1673ffffffffffffffffffffffffffffffffffffffff16826040516122da906137c2565b5f6040518083038185875af1925050503d805f8114612314576040519150601f19603f3d011682016040523d82523d5f602084013e612319565b606091505b505090508061235d576040517f08c379a000000000000000000000000000000000000000000000000000000000815260040161235490613b26565b60405180910390fd5b868873ffffffffffffffffffffffffffffffffffffffff163373ffffffffffffffffffffffffffffffffffffffff167fdf462b659b1ef8bf3bb666339203dff5a51e2430e9caaf35984dcb2a92c77d6660405160405180910390a48773ffffffffffffffffffffffffffffffffffffffff16855f015f9054906101000a900473ffffffffffffffffffffffffffffffffffffffff1673ffffffffffffffffffffffffffffffffffffffff163373ffffffffffffffffffffffffffffffffffffffff167fb425e3970f4f24b813eb760a2af6bf5f865b81a725fa116350720ef99340a70d8a86604051612450929190613b44565b60405180910390a4505050505050612466613104565b5050565b5f805f805f806004878154811061248457612483614088565b5b905f5260205f2090600202016040518060400160405290815f82015f9054906101000a900473ffffffffffffffffffffffffffffffffffffffff1673ffffffffffffffffffffffffffffffffffffffff1673ffffffffffffffffffffffffffffffffffffffff1681526020016001820154815250509050805f01519550806020015194505f61251387876130d2565b90505f60025f8381526020019081526020015f206040518060600160405290815f82015f9054906101000a900473ffffffffffffffffffffffffffffffffffffffff1673ffffffffffffffffffffffffffffffffffffffff1673ffffffffffffffffffffffffffffffffffffffff16815260200160018201548152602001600282015f9054906101000a900460ff16151515158152505090505f60035f8481526020019081526020015f206040518060c00160405290815f82015f9054906101000a900473ffffffffffffffffffffffffffffffffffffffff1673ffffffffffffffffffffffffffffffffffffffff1673ffffffffffffffffffffffffffffffffffffffff16815260200160018201548152602001600282015f9054906101000a900460ff16600581111561264b5761264a613306565b5b600581111561265d5761265c613306565b5b8152602001600382015481526020016004820154815260200160058201548152505090505f6003600581111561269657612695613306565b5b826040015160058111156126ad576126ac613306565b5b14806126e15750600160058111156126c8576126c7613306565b5b826040015160058111156126df576126de613306565b5b145b806127145750600260058111156126fb576126fa613306565b5b8260400151600581111561271257612711613306565b5b145b90508989845f015185602001518499509950995099509950505050505091939590929450565b61274261308c565b5f61274d83836130d2565b90505f60025f8381526020019081526020015f206040518060600160405290815f82015f9054906101000a900473ffffffffffffffffffffffffffffffffffffffff1673ffffffffffffffffffffffffffffffffffffffff1673ffffffffffffffffffffffffffffffffffffffff16815260200160018201548152602001600282015f9054906101000a900460ff16151515158152505090505f60035f8481526020019081526020015f2090503373ffffffffffffffffffffffffffffffffffffffff16825f015173ffffffffffffffffffffffffffffffffffffffff161461286b576040517f08c379a00000000000000000000000000000000000000000000000000000000081526004016128629061406a565b60405180910390fd5b6001600581111561287f5761287e613306565b5b816002015f9054906101000a900460ff1660058111156128a2576128a1613306565b5b146128e2576040517f08c379a00000000000000000000000000000000000000000000000000000000081526004016128d9906140ff565b60405180910390fd5b6002816002015f6101000a81548160ff0219169083600581111561290957612908613306565b5b0217905550428160040181905550838573ffffffffffffffffffffffffffffffffffffffff163373ffffffffffffffffffffffffffffffffffffffff167f52ab4bbf9ae9572fdbcd90fe00d6ac19005a6640b3f5211251f7393ca9a3545b60405160405180910390a450505061297d613104565b5050565b612989613005565b61299161308c565b5f61299c84846130d2565b90505f60025f8381526020019081526020015f2090505f60035f8481526020019081526020015f2090506005808111156129d9576129d8613306565b5b816002015f9054906101000a900460ff1660058111156129fc576129fb613306565b5b14612a3c576040517f08c379a0000000000000000000000000000000000000000000000000000000008152600401612a3390614167565b60405180910390fd5b8315612be9576004816002015f6101000a81548160ff02191690836005811115612a6957612a68613306565b5b02179055505f826002015f6101000a81548160ff0219169083151502179055505f815f015f9054906101000a900473ffffffffffffffffffffffffffffffffffffffff1673ffffffffffffffffffffffffffffffffffffffff168260010154604051612ad4906137c2565b5f6040518083038185875af1925050503d805f8114612b0e576040519150601f19603f3d011682016040523d82523d5f602084013e612b13565b606091505b5050905080612b57576040517f08c379a0000000000000000000000000000000000000000000000000000000008152600401612b4e90613888565b60405180910390fd5b858773ffffffffffffffffffffffffffffffffffffffff16835f015f9054906101000a900473ffffffffffffffffffffffffffffffffffffffff1673ffffffffffffffffffffffffffffffffffffffff167ff3c3f4a2eb620d4906d0e71a853aed5e409c62169a0d72b7bf57e54edbec81528560010154604051612bdb91906132de565b60405180910390a450612ec4565b6003816002015f6101000a81548160ff02191690836005811115612c1057612c0f613306565b5b02179055504281600501819055505f826002015f6101000a81548160ff0219169083151502179055505f6127106005548360010154612c4f91906139d6565b612c599190613a44565b90505f818360010154612c6c9190613a74565b90508160065f828254612c7f919061393b565b925050819055508773ffffffffffffffffffffffffffffffffffffffff166342842e0e855f015f9054906101000a900473ffffffffffffffffffffffffffffffffffffffff16855f015f9054906101000a900473ffffffffffffffffffffffffffffffffffffffff168a6040518463ffffffff1660e01b8152600401612d0793929190613aa7565b5f604051808303815f87803b158015612d1e575f80fd5b505af1158015612d30573d5f803e3d5ffd5b505050505f845f015f9054906101000a900473ffffffffffffffffffffffffffffffffffffffff1673ffffffffffffffffffffffffffffffffffffffff1682604051612d7b906137c2565b5f6040518083038185875af1925050503d805f8114612db5576040519150601f19603f3d011682016040523d82523d5f602084013e612dba565b606091505b5050905080612dfe576040517f08c379a0000000000000000000000000000000000000000000000000000000008152600401612df590613b26565b60405180910390fd5b8873ffffffffffffffffffffffffffffffffffffffff16855f015f9054906101000a900473ffffffffffffffffffffffffffffffffffffffff1673ffffffffffffffffffffffffffffffffffffffff16855f015f9054906101000a900473ffffffffffffffffffffffffffffffffffffffff1673ffffffffffffffffffffffffffffffffffffffff167fb425e3970f4f24b813eb760a2af6bf5f865b81a725fa116350720ef99340a70d8b86604051612eb8929190613b44565b60405180910390a45050505b848673ffffffffffffffffffffffffffffffffffffffff167f798e68462b6674448ea3db700362faf55bfcb6099c8067a1c74779939526f8a986604051612f0b9190614185565b60405180910390a3505050612f1e613104565b505050565b60075481565b612f31613005565b5f73ffffffffffffffffffffffffffffffffffffffff168173ffffffffffffffffffffffffffffffffffffffff1603612fa1575f6040517f1e4fbdf7000000000000000000000000000000000000000000000000000000008152600401612f989190613477565b60405180910390fd5b612faa8161310d565b50565b612fb5613005565b62015180811015612ffb576040517f08c379a0000000000000000000000000000000000000000000000000000000008152600401612ff2906141e8565b60405180910390fd5b8060078190555050565b61300d6131ce565b73ffffffffffffffffffffffffffffffffffffffff1661302b6117d6565b73ffffffffffffffffffffffffffffffffffffffff161461308a5761304e6131ce565b6040517f118cdaa70000000000000000000000000000000000000000000000000000000081526004016130819190613477565b60405180910390fd5b565b6002600154036130c8576040517f3ee5aeb500000000000000000000000000000000000000000000000000000000815260040160405180910390fd5b6002600181905550565b5f82826040516020016130e692919061426b565b60405160208183030381529060405280519060200120905092915050565b60018081905550565b5f805f9054906101000a900473ffffffffffffffffffffffffffffffffffffffff169050815f806101000a81548173ffffffffffffffffffffffffffffffffffffffff021916908373ffffffffffffffffffffffffffffffffffffffff1602179055508173ffffffffffffffffffffffffffffffffffffffff168173ffffffffffffffffffffffffffffffffffffffff167f8be0079c531659141344cd1fd0a4f28419497f9722a3daafe3b4186f6b6457e060405160405180910390a35050565b5f33905090565b5f80fd5b5f819050919050565b6131eb816131d9565b81146131f5575f80fd5b50565b5f81359050613206816131e2565b92915050565b5f60208284031215613221576132206131d5565b5b5f61322e848285016131f8565b91505092915050565b5f73ffffffffffffffffffffffffffffffffffffffff82169050919050565b5f61326082613237565b9050919050565b61327081613256565b811461327a575f80fd5b50565b5f8135905061328b81613267565b92915050565b5f80604083850312156132a7576132a66131d5565b5b5f6132b48582860161327d565b92505060206132c5858286016131f8565b9150509250929050565b6132d8816131d9565b82525050565b5f6020820190506132f15f8301846132cf565b92915050565b61330081613256565b82525050565b7f4e487b71000000000000000000000000000000000000000000000000000000005f52602160045260245ffd5b6006811061334457613343613306565b5b50565b5f81905061335482613333565b919050565b5f61336382613347565b9050919050565b61337381613359565b82525050565b5f60c08201905061338c5f8301896132f7565b61339960208301886132cf565b6133a6604083018761336a565b6133b360608301866132cf565b6133c060808301856132cf565b6133cd60a08301846132cf565b979650505050505050565b5f8115159050919050565b6133ec816133d8565b82525050565b5f6060820190506134055f8301866132f7565b61341260208301856132cf565b61341f60408301846133e3565b949350505050565b5f805f6060848603121561343e5761343d6131d5565b5b5f61344b8682870161327d565b935050602061345c868287016131f8565b925050604061346d868287016131f8565b9150509250925092565b5f60208201905061348a5f8301846132f7565b92915050565b5f60c0820190506134a35f8301896132f7565b6134b060208301886132cf565b6134bd60408301876133e3565b6134ca60608301866132f7565b6134d7608083018561336a565b6134e460a08301846132cf565b979650505050505050565b5f60a0820190506135025f8301886132f7565b61350f60208301876132cf565b61351c60408301866132f7565b61352960608301856132cf565b61353660808301846133e3565b9695505050505050565b613549816133d8565b8114613553575f80fd5b50565b5f8135905061356481613540565b92915050565b5f805f60608486031215613581576135806131d5565b5b5f61358e8682870161327d565b935050602061359f868287016131f8565b92505060406135b086828701613556565b9150509250925092565b5f602082840312156135cf576135ce6131d5565b5b5f6135dc8482850161327d565b91505092915050565b5f82825260208201905092915050565b7f4645455f544f4f5f4849474800000000000000000000000000000000000000005f82015250565b5f613629600c836135e5565b9150613634826135f5565b602082019050919050565b5f6020820190508181035f8301526136568161361d565b9050919050565b7f4e4f545f425559455200000000000000000000000000000000000000000000005f82015250565b5f6136916009836135e5565b915061369c8261365d565b602082019050919050565b5f6020820190508181035f8301526136be81613685565b9050919050565b7f494e56414c49445f5354415455530000000000000000000000000000000000005f82015250565b5f6136f9600e836135e5565b9150613704826136c5565b602082019050919050565b5f6020820190508181035f830152613726816136ed565b9050919050565b7f4e4f5f46454553000000000000000000000000000000000000000000000000005f82015250565b5f6137616007836135e5565b915061376c8261372d565b602082019050919050565b5f6020820190508181035f83015261378e81613755565b9050919050565b5f81905092915050565b50565b5f6137ad5f83613795565b91506137b88261379f565b5f82019050919050565b5f6137cc826137a2565b9150819050919050565b7f57495448445241575f4641494c000000000000000000000000000000000000005f82015250565b5f61380a600d836135e5565b9150613815826137d6565b602082019050919050565b5f6020820190508181035f830152613837816137fe565b9050919050565b7f524546554e445f4641494c0000000000000000000000000000000000000000005f82015250565b5f613872600b836135e5565b915061387d8261383e565b602082019050919050565b5f6020820190508181035f83015261389f81613866565b9050919050565b7f4e4f545f44454c495645524544000000000000000000000000000000000000005f82015250565b5f6138da600d836135e5565b91506138e5826138a6565b602082019050919050565b5f6020820190508181035f830152613907816138ce565b9050919050565b7f4e487b71000000000000000000000000000000000000000000000000000000005f52601160045260245ffd5b5f613945826131d9565b9150613950836131d9565b92508282019050808211156139685761396761390e565b5b92915050565b7f54494d454f55545f4e4f545f52454143484544000000000000000000000000005f82015250565b5f6139a26013836135e5565b91506139ad8261396e565b602082019050919050565b5f6020820190508181035f8301526139cf81613996565b9050919050565b5f6139e0826131d9565b91506139eb836131d9565b92508282026139f9816131d9565b91508282048414831517613a1057613a0f61390e565b5b5092915050565b7f4e487b71000000000000000000000000000000000000000000000000000000005f52601260045260245ffd5b5f613a4e826131d9565b9150613a59836131d9565b925082613a6957613a68613a17565b5b828204905092915050565b5f613a7e826131d9565b9150613a89836131d9565b9250828203905081811115613aa157613aa061390e565b5b92915050565b5f606082019050613aba5f8301866132f7565b613ac760208301856132f7565b613ad460408301846132cf565b949350505050565b7f5041595f4641494c0000000000000000000000000000000000000000000000005f82015250565b5f613b106008836135e5565b9150613b1b82613adc565b602082019050919050565b5f6020820190508181035f830152613b3d81613b04565b9050919050565b5f604082019050613b575f8301856132cf565b613b6460208301846132cf565b9392505050565b7f4e46545f5a45524f0000000000000000000000000000000000000000000000005f82015250565b5f613b9f6008836135e5565b9150613baa82613b6b565b602082019050919050565b5f6020820190508181035f830152613bcc81613b93565b9050919050565b7f50524943455f5a45524f000000000000000000000000000000000000000000005f82015250565b5f613c07600a836135e5565b9150613c1282613bd3565b602082019050919050565b5f6020820190508181035f830152613c3481613bfb565b9050919050565b5f81519050613c4981613267565b92915050565b5f60208284031215613c6457613c636131d5565b5b5f613c7184828501613c3b565b91505092915050565b7f4e4f545f4f574e455200000000000000000000000000000000000000000000005f82015250565b5f613cae6009836135e5565b9150613cb982613c7a565b602082019050919050565b5f6020820190508181035f830152613cdb81613ca2565b9050919050565b5f604082019050613cf55f8301856132f7565b613d0260208301846132f7565b9392505050565b5f81519050613d1781613540565b92915050565b5f60208284031215613d3257613d316131d5565b5b5f613d3f84828501613d09565b91505092915050565b7f4e4f545f415050524f56454400000000000000000000000000000000000000005f82015250565b5f613d7c600c836135e5565b9150613d8782613d48565b602082019050919050565b5f6020820190508181035f830152613da981613d70565b9050919050565b7f414c52454144595f4c49535445440000000000000000000000000000000000005f82015250565b5f613de4600e836135e5565b9150613def82613db0565b602082019050919050565b5f6020820190508181035f830152613e1181613dd8565b9050919050565b7f4e4f545f4c4953544544000000000000000000000000000000000000000000005f82015250565b5f613e4c600a836135e5565b9150613e5782613e18565b602082019050919050565b5f6020820190508181035f830152613e7981613e40565b9050919050565b7f4e4f545f414354495645000000000000000000000000000000000000000000005f82015250565b5f613eb4600a836135e5565b9150613ebf82613e80565b602082019050919050565b5f6020820190508181035f830152613ee181613ea8565b9050919050565b7f414c52454144595f5055524348415345440000000000000000000000000000005f82015250565b5f613f1c6011836135e5565b9150613f2782613ee8565b602082019050919050565b5f6020820190508181035f830152613f4981613f10565b9050919050565b7f4241445f56414c554500000000000000000000000000000000000000000000005f82015250565b5f613f846009836135e5565b9150613f8f82613f50565b602082019050919050565b5f6020820190508181035f830152613fb181613f78565b9050919050565b7f53454c465f4255590000000000000000000000000000000000000000000000005f82015250565b5f613fec6008836135e5565b9150613ff782613fb8565b602082019050919050565b5f6020820190508181035f83015261401981613fe0565b9050919050565b7f4e4f545f53454c4c4552000000000000000000000000000000000000000000005f82015250565b5f614054600a836135e5565b915061405f82614020565b602082019050919050565b5f6020820190508181035f83015261408181614048565b9050919050565b7f4e487b71000000000000000000000000000000000000000000000000000000005f52603260045260245ffd5b7f4e4f545f494e5f455343524f57000000000000000000000000000000000000005f82015250565b5f6140e9600d836135e5565b91506140f4826140b5565b602082019050919050565b5f6020820190508181035f830152614116816140dd565b9050919050565b7f4e4f545f444953505554454400000000000000000000000000000000000000005f82015250565b5f614151600c836135e5565b915061415c8261411d565b602082019050919050565b5f6020820190508181035f83015261417e81614145565b9050919050565b5f6020820190506141985f8301846133e3565b92915050565b7f54494d454f55545f544f4f5f53484f52540000000000000000000000000000005f82015250565b5f6141d26011836135e5565b91506141dd8261419e565b602082019050919050565b5f6020820190508181035f8301526141ff816141c6565b9050919050565b5f8160601b9050919050565b5f61421c82614206565b9050919050565b5f61422d82614212565b9050919050565b61424561424082613256565b614223565b82525050565b5f819050919050565b614265614260826131d9565b61424b565b82525050565b5f6142768285614234565b6014820191506142868284614254565b602082019150819050939250505056fea2646970667358221220dff3cb91362bd44b6b3cc83bb5f26b7c0fc9acf1d6139f24b9120d85d258a7ef64736f6c63430008180033","opcodes":"PUSH1 0x80 PUSH1 0x40 MSTORE PUSH1 0xFA PUSH1 0x5 SSTORE PUSH3 0x93A80 PUSH1 0x7 SSTORE CALLVALUE DUP1 ISZERO PUSH3 0x1C JUMPI PUSH0 DUP1 REVERT JUMPDEST POP CALLER PUSH0 PUSH20 0xFFFFFFFFFFFFFFFFFFFFFFFFFFFFFFFFFFFFFFFF AND DUP2 PUSH20 0xFFFFFFFFFFFFFFFFFFFFFFFFFFFFFFFFFFFFFFFF AND SUB PUSH3 0x91 JUMPI PUSH0 PUSH1 0x40 MLOAD PUSH32 0x1E4FBDF700000000000000000000000000000000000000000000000000000000 DUP2 MSTORE PUSH1 0x4 ADD PUSH3 0x88 SWAP2 SWAP1 PUSH3 0x1B4 JUMP JUMPDEST PUSH1 0x40 MLOAD DUP1 SWAP2 SUB SWAP1 REVERT JUMPDEST PUSH3 0xA2 DUP2 PUSH3 0xB0 PUSH1 0x20 SHL PUSH1 0x20 SHR JUMP JUMPDEST POP PUSH1 0x1 DUP1 DUP2 SWAP1 SSTORE POP PUSH3 0x1CF JUMP JUMPDEST PUSH0 DUP1 PUSH0 SWAP1 SLOAD SWAP1 PUSH2 0x100 EXP SWAP1 DIV PUSH20 0xFFFFFFFFFFFFFFFFFFFFFFFFFFFFFFFFFFFFFFFF AND SWAP1 POP DUP2 PUSH0 DUP1 PUSH2 0x100 EXP DUP2 SLOAD DUP2 PUSH20 0xFFFFFFFFFFFFFFFFFFFFFFFFFFFFFFFFFFFFFFFF MUL NOT AND SWAP1 DUP4 PUSH20 0xFFFFFFFFFFFFFFFFFFFFFFFFFFFFFFFFFFFFFFFF AND MUL OR SWAP1 SSTORE POP DUP2 PUSH20 0xFFFFFFFFFFFFFFFFFFFFFFFFFFFFFFFFFFFFFFFF AND DUP2 PUSH20 0xFFFFFFFFFFFFFFFFFFFFFFFFFFFFFFFFFFFFFFFF AND PUSH32 0x8BE0079C531659141344CD1FD0A4F28419497F9722A3DAAFE3B4186F6B6457E0 PUSH1 0x40 MLOAD PUSH1 0x40 MLOAD DUP1 SWAP2 SUB SWAP1 LOG3 POP POP JUMP JUMPDEST PUSH0 PUSH20 0xFFFFFFFFFFFFFFFFFFFFFFFFFFFFFFFFFFFFFFFF DUP3 AND SWAP1 POP SWAP2 SWAP1 POP JUMP JUMPDEST PUSH0 PUSH3 0x19C DUP3 PUSH3 0x171 JUMP JUMPDEST SWAP1 POP SWAP2 SWAP1 POP JUMP JUMPDEST PUSH3 0x1AE DUP2 PUSH3 0x190 JUMP JUMPDEST DUP3 MSTORE POP POP JUMP JUMPDEST PUSH0 PUSH1 0x20 DUP3 ADD SWAP1 POP PUSH3 0x1C9 PUSH0 DUP4 ADD DUP5 PUSH3 0x1A3 JUMP JUMPDEST SWAP3 SWAP2 POP POP JUMP JUMPDEST PUSH2 0x42CC DUP1 PUSH3 0x1DD PUSH0 CODECOPY PUSH0 RETURN INVALID PUSH1 0x80 PUSH1 0x40 MSTORE PUSH1 0x4 CALLDATASIZE LT PUSH2 0x13F JUMPI PUSH0 CALLDATALOAD PUSH1 0xE0 SHR DUP1 PUSH4 0x8DA5CB5B GT PUSH2 0xB5 JUMPI DUP1 PUSH4 0xB82EB9F8 GT PUSH2 0x6E JUMPI DUP1 PUSH4 0xB82EB9F8 EQ PUSH2 0x40B JUMPI DUP1 PUSH4 0xBB633923 EQ PUSH2 0x44B JUMPI DUP1 PUSH4 0xC9754F1A EQ PUSH2 0x473 JUMPI DUP1 PUSH4 0xE21E2580 EQ PUSH2 0x49B JUMPI DUP1 PUSH4 0xF2FDE38B EQ PUSH2 0x4C5 JUMPI DUP1 PUSH4 0xFB20190A EQ PUSH2 0x4ED JUMPI PUSH2 0x13F JUMP JUMPDEST DUP1 PUSH4 0x8DA5CB5B EQ PUSH2 0x30A JUMPI DUP1 PUSH4 0x95306532 EQ PUSH2 0x334 JUMPI DUP1 PUSH4 0x9F37092A EQ PUSH2 0x375 JUMPI DUP1 PUSH4 0xA9B07C26 EQ PUSH2 0x391 JUMPI DUP1 PUSH4 0xB2DDEE06 EQ PUSH2 0x3BB JUMPI DUP1 PUSH4 0xB6B9AD03 EQ PUSH2 0x3E3 JUMPI PUSH2 0x13F JUMP JUMPDEST DUP1 PUSH4 0x60C6D8AE GT PUSH2 0x107 JUMPI DUP1 PUSH4 0x60C6D8AE EQ PUSH2 0x214 JUMPI DUP1 PUSH4 0x67F8A8B8 EQ PUSH2 0x23E JUMPI DUP1 PUSH4 0x715018A6 EQ PUSH2 0x266 JUMPI DUP1 PUSH4 0x7814EBE6 EQ PUSH2 0x27C JUMPI DUP1 PUSH4 0x88700D1C EQ PUSH2 0x2A4 JUMPI DUP1 PUSH4 0x89BFD38F EQ PUSH2 0x2E2 JUMPI PUSH2 0x13F JUMP JUMPDEST DUP1 PUSH4 0x12E8E2C3 EQ PUSH2 0x143 JUMPI DUP1 PUSH4 0x16EDDAEE EQ PUSH2 0x16B JUMPI DUP1 PUSH4 0x22DCD13E EQ PUSH2 0x193 JUMPI DUP1 PUSH4 0x2A2A92CC EQ PUSH2 0x1BD JUMPI DUP1 PUSH4 0x476343EE EQ PUSH2 0x1FE JUMPI JUMPDEST PUSH0 DUP1 REVERT JUMPDEST CALLVALUE DUP1 ISZERO PUSH2 0x14E JUMPI PUSH0 DUP1 REVERT JUMPDEST POP PUSH2 0x169 PUSH1 0x4 DUP1 CALLDATASIZE SUB DUP2 ADD SWAP1 PUSH2 0x164 SWAP2 SWAP1 PUSH2 0x320C JUMP JUMPDEST PUSH2 0x515 JUMP JUMPDEST STOP JUMPDEST CALLVALUE DUP1 ISZERO PUSH2 0x176 JUMPI PUSH0 DUP1 REVERT JUMPDEST POP PUSH2 0x191 PUSH1 0x4 DUP1 CALLDATASIZE SUB DUP2 ADD SWAP1 PUSH2 0x18C SWAP2 SWAP1 PUSH2 0x3291 JUMP JUMPDEST PUSH2 0x56C JUMP JUMPDEST STOP JUMPDEST CALLVALUE DUP1 ISZERO PUSH2 0x19E JUMPI PUSH0 DUP1 REVERT JUMPDEST POP PUSH2 0x1A7 PUSH2 0x770 JUMP JUMPDEST PUSH1 0x40 MLOAD PUSH2 0x1B4 SWAP2 SWAP1 PUSH2 0x32DE JUMP JUMPDEST PUSH1 0x40 MLOAD DUP1 SWAP2 SUB SWAP1 RETURN JUMPDEST CALLVALUE DUP1 ISZERO PUSH2 0x1C8 JUMPI PUSH0 DUP1 REVERT JUMPDEST POP PUSH2 0x1E3 PUSH1 0x4 DUP1 CALLDATASIZE SUB DUP2 ADD SWAP1 PUSH2 0x1DE SWAP2 SWAP1 PUSH2 0x3291 JUMP JUMPDEST PUSH2 0x776 JUMP JUMPDEST PUSH1 0x40 MLOAD PUSH2 0x1F5 SWAP7 SWAP6 SWAP5 SWAP4 SWAP3 SWAP2 SWAP1 PUSH2 0x3379 JUMP JUMPDEST PUSH1 0x40 MLOAD DUP1 SWAP2 SUB SWAP1 RETURN JUMPDEST CALLVALUE DUP1 ISZERO PUSH2 0x209 JUMPI PUSH0 DUP1 REVERT JUMPDEST POP PUSH2 0x212 PUSH2 0x893 JUMP JUMPDEST STOP JUMPDEST CALLVALUE DUP1 ISZERO PUSH2 0x21F JUMPI PUSH0 DUP1 REVERT JUMPDEST POP PUSH2 0x228 PUSH2 0x9AD JUMP JUMPDEST PUSH1 0x40 MLOAD PUSH2 0x235 SWAP2 SWAP1 PUSH2 0x32DE JUMP JUMPDEST PUSH1 0x40 MLOAD DUP1 SWAP2 SUB SWAP1 RETURN JUMPDEST CALLVALUE DUP1 ISZERO PUSH2 0x249 JUMPI PUSH0 DUP1 REVERT JUMPDEST POP PUSH2 0x264 PUSH1 0x4 DUP1 CALLDATASIZE SUB DUP2 ADD SWAP1 PUSH2 0x25F SWAP2 SWAP1 PUSH2 0x3291 JUMP JUMPDEST PUSH2 0x9B3 JUMP JUMPDEST STOP JUMPDEST CALLVALUE DUP1 ISZERO PUSH2 0x271 JUMPI PUSH0 DUP1 REVERT JUMPDEST POP PUSH2 0x27A PUSH2 0xC5F JUMP JUMPDEST STOP JUMPDEST CALLVALUE DUP1 ISZERO PUSH2 0x287 JUMPI PUSH0 DUP1 REVERT JUMPDEST POP PUSH2 0x2A2 PUSH1 0x4 DUP1 CALLDATASIZE SUB DUP2 ADD SWAP1 PUSH2 0x29D SWAP2 SWAP1 PUSH2 0x3291 JUMP JUMPDEST PUSH2 0xC72 JUMP JUMPDEST STOP JUMPDEST CALLVALUE DUP1 ISZERO PUSH2 0x2AF JUMPI PUSH0 DUP1 REVERT JUMPDEST POP PUSH2 0x2CA PUSH1 0x4 DUP1 CALLDATASIZE SUB DUP2 ADD SWAP1 PUSH2 0x2C5 SWAP2 SWAP1 PUSH2 0x3291 JUMP JUMPDEST PUSH2 0x1063 JUMP JUMPDEST PUSH1 0x40 MLOAD PUSH2 0x2D9 SWAP4 SWAP3 SWAP2 SWAP1 PUSH2 0x33F2 JUMP JUMPDEST PUSH1 0x40 MLOAD DUP1 SWAP2 SUB SWAP1 RETURN JUMPDEST CALLVALUE DUP1 ISZERO PUSH2 0x2ED JUMPI PUSH0 DUP1 REVERT JUMPDEST POP PUSH2 0x308 PUSH1 0x4 DUP1 CALLDATASIZE SUB DUP2 ADD SWAP1 PUSH2 0x303 SWAP2 SWAP1 PUSH2 0x3427 JUMP JUMPDEST PUSH2 0x128F JUMP JUMPDEST STOP JUMPDEST CALLVALUE DUP1 ISZERO PUSH2 0x315 JUMPI PUSH0 DUP1 REVERT JUMPDEST POP PUSH2 0x31E PUSH2 0x17D6 JUMP JUMPDEST PUSH1 0x40 MLOAD PUSH2 0x32B SWAP2 SWAP1 PUSH2 0x3477 JUMP JUMPDEST PUSH1 0x40 MLOAD DUP1 SWAP2 SUB SWAP1 RETURN JUMPDEST CALLVALUE DUP1 ISZERO PUSH2 0x33F JUMPI PUSH0 DUP1 REVERT JUMPDEST POP PUSH2 0x35A PUSH1 0x4 DUP1 CALLDATASIZE SUB DUP2 ADD SWAP1 PUSH2 0x355 SWAP2 SWAP1 PUSH2 0x3291 JUMP JUMPDEST PUSH2 0x17FD JUMP JUMPDEST PUSH1 0x40 MLOAD PUSH2 0x36C SWAP7 SWAP6 SWAP5 SWAP4 SWAP3 SWAP2 SWAP1 PUSH2 0x3490 JUMP JUMPDEST PUSH1 0x40 MLOAD DUP1 SWAP2 SUB SWAP1 RETURN JUMPDEST PUSH2 0x38F PUSH1 0x4 DUP1 CALLDATASIZE SUB DUP2 ADD SWAP1 PUSH2 0x38A SWAP2 SWAP1 PUSH2 0x3291 JUMP JUMPDEST PUSH2 0x19B1 JUMP JUMPDEST STOP JUMPDEST CALLVALUE DUP1 ISZERO PUSH2 0x39C JUMPI PUSH0 DUP1 REVERT JUMPDEST POP PUSH2 0x3A5 PUSH2 0x1D0E JUMP JUMPDEST PUSH1 0x40 MLOAD PUSH2 0x3B2 SWAP2 SWAP1 PUSH2 0x32DE JUMP JUMPDEST PUSH1 0x40 MLOAD DUP1 SWAP2 SUB SWAP1 RETURN JUMPDEST CALLVALUE DUP1 ISZERO PUSH2 0x3C6 JUMPI PUSH0 DUP1 REVERT JUMPDEST POP PUSH2 0x3E1 PUSH1 0x4 DUP1 CALLDATASIZE SUB DUP2 ADD SWAP1 PUSH2 0x3DC SWAP2 SWAP1 PUSH2 0x3291 JUMP JUMPDEST PUSH2 0x1D1A JUMP JUMPDEST STOP JUMPDEST CALLVALUE DUP1 ISZERO PUSH2 0x3EE JUMPI PUSH0 DUP1 REVERT JUMPDEST POP PUSH2 0x409 PUSH1 0x4 DUP1 CALLDATASIZE SUB DUP2 ADD SWAP1 PUSH2 0x404 SWAP2 SWAP1 PUSH2 0x3291 JUMP JUMPDEST PUSH2 0x1FE7 JUMP JUMPDEST STOP JUMPDEST CALLVALUE DUP1 ISZERO PUSH2 0x416 JUMPI PUSH0 DUP1 REVERT JUMPDEST POP PUSH2 0x431 PUSH1 0x4 DUP1 CALLDATASIZE SUB DUP2 ADD SWAP1 PUSH2 0x42C SWAP2 SWAP1 PUSH2 0x320C JUMP JUMPDEST PUSH2 0x246A JUMP JUMPDEST PUSH1 0x40 MLOAD PUSH2 0x442 SWAP6 SWAP5 SWAP4 SWAP3 SWAP2 SWAP1 PUSH2 0x34EF JUMP JUMPDEST PUSH1 0x40 MLOAD DUP1 SWAP2 SUB SWAP1 RETURN JUMPDEST CALLVALUE DUP1 ISZERO PUSH2 0x456 JUMPI PUSH0 DUP1 REVERT JUMPDEST POP PUSH2 0x471 PUSH1 0x4 DUP1 CALLDATASIZE SUB DUP2 ADD SWAP1 PUSH2 0x46C SWAP2 SWAP1 PUSH2 0x3291 JUMP JUMPDEST PUSH2 0x273A JUMP JUMPDEST STOP JUMPDEST CALLVALUE DUP1 ISZERO PUSH2 0x47E JUMPI PUSH0 DUP1 REVERT JUMPDEST POP PUSH2 0x499 PUSH1 0x4 DUP1 CALLDATASIZE SUB DUP2 ADD SWAP1 PUSH2 0x494 SWAP2 SWAP1 PUSH2 0x356A JUMP JUMPDEST PUSH2 0x2981 JUMP JUMPDEST STOP JUMPDEST CALLVALUE DUP1 ISZERO PUSH2 0x4A6 JUMPI PUSH0 DUP1 REVERT JUMPDEST POP PUSH2 0x4AF PUSH2 0x2F23 JUMP JUMPDEST PUSH1 0x40 MLOAD PUSH2 0x4BC SWAP2 SWAP1 PUSH2 0x32DE JUMP JUMPDEST PUSH1 0x40 MLOAD DUP1 SWAP2 SUB SWAP1 RETURN JUMPDEST CALLVALUE DUP1 ISZERO PUSH2 0x4D0 JUMPI PUSH0 DUP1 REVERT JUMPDEST POP PUSH2 0x4EB PUSH1 0x4 DUP1 CALLDATASIZE SUB DUP2 ADD SWAP1 PUSH2 0x4E6 SWAP2 SWAP1 PUSH2 0x35BA JUMP JUMPDEST PUSH2 0x2F29 JUMP JUMPDEST STOP JUMPDEST CALLVALUE DUP1 ISZERO PUSH2 0x4F8 JUMPI PUSH0 DUP1 REVERT JUMPDEST POP PUSH2 0x513 PUSH1 0x4 DUP1 CALLDATASIZE SUB DUP2 ADD SWAP1 PUSH2 0x50E SWAP2 SWAP1 PUSH2 0x320C JUMP JUMPDEST PUSH2 0x2FAD JUMP JUMPDEST STOP JUMPDEST PUSH2 0x51D PUSH2 0x3005 JUMP JUMPDEST PUSH2 0x3E8 DUP2 GT ISZERO PUSH2 0x562 JUMPI PUSH1 0x40 MLOAD PUSH32 0x8C379A000000000000000000000000000000000000000000000000000000000 DUP2 MSTORE PUSH1 0x4 ADD PUSH2 0x559 SWAP1 PUSH2 0x363F JUMP JUMPDEST PUSH1 0x40 MLOAD DUP1 SWAP2 SUB SWAP1 REVERT JUMPDEST DUP1 PUSH1 0x5 DUP2 SWAP1 SSTORE POP POP JUMP JUMPDEST PUSH2 0x574 PUSH2 0x308C JUMP JUMPDEST PUSH0 PUSH2 0x57F DUP4 DUP4 PUSH2 0x30D2 JUMP JUMPDEST SWAP1 POP PUSH0 PUSH1 0x3 PUSH0 DUP4 DUP2 MSTORE PUSH1 0x20 ADD SWAP1 DUP2 MSTORE PUSH1 0x20 ADD PUSH0 KECCAK256 SWAP1 POP CALLER PUSH20 0xFFFFFFFFFFFFFFFFFFFFFFFFFFFFFFFFFFFFFFFF AND DUP2 PUSH0 ADD PUSH0 SWAP1 SLOAD SWAP1 PUSH2 0x100 EXP SWAP1 DIV PUSH20 0xFFFFFFFFFFFFFFFFFFFFFFFFFFFFFFFFFFFFFFFF AND PUSH20 0xFFFFFFFFFFFFFFFFFFFFFFFFFFFFFFFFFFFFFFFF AND EQ PUSH2 0x625 JUMPI PUSH1 0x40 MLOAD PUSH32 0x8C379A000000000000000000000000000000000000000000000000000000000 DUP2 MSTORE PUSH1 0x4 ADD PUSH2 0x61C SWAP1 PUSH2 0x36A7 JUMP JUMPDEST PUSH1 0x40 MLOAD DUP1 SWAP2 SUB SWAP1 REVERT JUMPDEST PUSH1 0x1 PUSH1 0x5 DUP2 GT ISZERO PUSH2 0x639 JUMPI PUSH2 0x638 PUSH2 0x3306 JUMP JUMPDEST JUMPDEST DUP2 PUSH1 0x2 ADD PUSH0 SWAP1 SLOAD SWAP1 PUSH2 0x100 EXP SWAP1 DIV PUSH1 0xFF AND PUSH1 0x5 DUP2 GT ISZERO PUSH2 0x65C JUMPI PUSH2 0x65B PUSH2 0x3306 JUMP JUMPDEST JUMPDEST EQ DUP1 PUSH2 0x69C JUMPI POP PUSH1 0x2 PUSH1 0x5 DUP2 GT ISZERO PUSH2 0x677 JUMPI PUSH2 0x676 PUSH2 0x3306 JUMP JUMPDEST JUMPDEST DUP2 PUSH1 0x2 ADD PUSH0 SWAP1 SLOAD SWAP1 PUSH2 0x100 EXP SWAP1 DIV PUSH1 0xFF AND PUSH1 0x5 DUP2 GT ISZERO PUSH2 0x69A JUMPI PUSH2 0x699 PUSH2 0x3306 JUMP JUMPDEST JUMPDEST EQ JUMPDEST PUSH2 0x6DB JUMPI PUSH1 0x40 MLOAD PUSH32 0x8C379A000000000000000000000000000000000000000000000000000000000 DUP2 MSTORE PUSH1 0x4 ADD PUSH2 0x6D2 SWAP1 PUSH2 0x370F JUMP JUMPDEST PUSH1 0x40 MLOAD DUP1 SWAP2 SUB SWAP1 REVERT JUMPDEST PUSH1 0x5 DUP2 PUSH1 0x2 ADD PUSH0 PUSH2 0x100 EXP DUP2 SLOAD DUP2 PUSH1 0xFF MUL NOT AND SWAP1 DUP4 PUSH1 0x5 DUP2 GT ISZERO PUSH2 0x702 JUMPI PUSH2 0x701 PUSH2 0x3306 JUMP JUMPDEST JUMPDEST MUL OR SWAP1 SSTORE POP DUP3 DUP5 PUSH20 0xFFFFFFFFFFFFFFFFFFFFFFFFFFFFFFFFFFFFFFFF AND CALLER PUSH20 0xFFFFFFFFFFFFFFFFFFFFFFFFFFFFFFFFFFFFFFFF AND PUSH32 0xE64F7AD65D89337C4A8E0A184107B60E148188A40B245DE26FF7881762F111E8 PUSH1 0x40 MLOAD PUSH1 0x40 MLOAD DUP1 SWAP2 SUB SWAP1 LOG4 POP POP PUSH2 0x76C PUSH2 0x3104 JUMP JUMPDEST POP POP JUMP JUMPDEST PUSH1 0x5 SLOAD DUP2 JUMP JUMPDEST PUSH0 DUP1 PUSH0 DUP1 PUSH0 DUP1 PUSH0 PUSH2 0x787 DUP10 DUP10 PUSH2 0x30D2 JUMP JUMPDEST SWAP1 POP PUSH0 PUSH1 0x3 PUSH0 DUP4 DUP2 MSTORE PUSH1 0x20 ADD SWAP1 DUP2 MSTORE PUSH1 0x20 ADD PUSH0 KECCAK256 PUSH1 0x40 MLOAD DUP1 PUSH1 0xC0 ADD PUSH1 0x40 MSTORE SWAP1 DUP2 PUSH0 DUP3 ADD PUSH0 SWAP1 SLOAD SWAP1 PUSH2 0x100 EXP SWAP1 DIV PUSH20 0xFFFFFFFFFFFFFFFFFFFFFFFFFFFFFFFFFFFFFFFF AND PUSH20 0xFFFFFFFFFFFFFFFFFFFFFFFFFFFFFFFFFFFFFFFF AND PUSH20 0xFFFFFFFFFFFFFFFFFFFFFFFFFFFFFFFFFFFFFFFF AND DUP2 MSTORE PUSH1 0x20 ADD PUSH1 0x1 DUP3 ADD SLOAD DUP2 MSTORE PUSH1 0x20 ADD PUSH1 0x2 DUP3 ADD PUSH0 SWAP1 SLOAD SWAP1 PUSH2 0x100 EXP SWAP1 DIV PUSH1 0xFF AND PUSH1 0x5 DUP2 GT ISZERO PUSH2 0x828 JUMPI PUSH2 0x827 PUSH2 0x3306 JUMP JUMPDEST JUMPDEST PUSH1 0x5 DUP2 GT ISZERO PUSH2 0x83A JUMPI PUSH2 0x839 PUSH2 0x3306 JUMP JUMPDEST JUMPDEST DUP2 MSTORE PUSH1 0x20 ADD PUSH1 0x3 DUP3 ADD SLOAD DUP2 MSTORE PUSH1 0x20 ADD PUSH1 0x4 DUP3 ADD SLOAD DUP2 MSTORE PUSH1 0x20 ADD PUSH1 0x5 DUP3 ADD SLOAD DUP2 MSTORE POP POP SWAP1 POP DUP1 PUSH0 ADD MLOAD DUP2 PUSH1 0x20 ADD MLOAD DUP3 PUSH1 0x40 ADD MLOAD DUP4 PUSH1 0x60 ADD MLOAD DUP5 PUSH1 0x80 ADD MLOAD DUP6 PUSH1 0xA0 ADD MLOAD SWAP8 POP SWAP8 POP SWAP8 POP SWAP8 POP SWAP8 POP SWAP8 POP POP POP SWAP3 SWAP6 POP SWAP3 SWAP6 POP SWAP3 SWAP6 JUMP JUMPDEST PUSH2 0x89B PUSH2 0x3005 JUMP JUMPDEST PUSH2 0x8A3 PUSH2 0x308C JUMP JUMPDEST PUSH0 PUSH1 0x6 SLOAD SWAP1 POP PUSH0 DUP2 GT PUSH2 0x8EB JUMPI PUSH1 0x40 MLOAD PUSH32 0x8C379A000000000000000000000000000000000000000000000000000000000 DUP2 MSTORE PUSH1 0x4 ADD PUSH2 0x8E2 SWAP1 PUSH2 0x3777 JUMP JUMPDEST PUSH1 0x40 MLOAD DUP1 SWAP2 SUB SWAP1 REVERT JUMPDEST PUSH0 PUSH1 0x6 DUP2 SWAP1 SSTORE POP PUSH0 PUSH2 0x8FB PUSH2 0x17D6 JUMP JUMPDEST PUSH20 0xFFFFFFFFFFFFFFFFFFFFFFFFFFFFFFFFFFFFFFFF AND DUP3 PUSH1 0x40 MLOAD PUSH2 0x91E SWAP1 PUSH2 0x37C2 JUMP JUMPDEST PUSH0 PUSH1 0x40 MLOAD DUP1 DUP4 SUB DUP2 DUP6 DUP8 GAS CALL SWAP3 POP POP POP RETURNDATASIZE DUP1 PUSH0 DUP2 EQ PUSH2 0x958 JUMPI PUSH1 0x40 MLOAD SWAP2 POP PUSH1 0x1F NOT PUSH1 0x3F RETURNDATASIZE ADD AND DUP3 ADD PUSH1 0x40 MSTORE RETURNDATASIZE DUP3 MSTORE RETURNDATASIZE PUSH0 PUSH1 0x20 DUP5 ADD RETURNDATACOPY PUSH2 0x95D JUMP JUMPDEST PUSH1 0x60 SWAP2 POP JUMPDEST POP POP SWAP1 POP DUP1 PUSH2 0x9A1 JUMPI PUSH1 0x40 MLOAD PUSH32 0x8C379A000000000000000000000000000000000000000000000000000000000 DUP2 MSTORE PUSH1 0x4 ADD PUSH2 0x998 SWAP1 PUSH2 0x3820 JUMP JUMPDEST PUSH1 0x40 MLOAD DUP1 SWAP2 SUB SWAP1 REVERT JUMPDEST POP POP PUSH2 0x9AB PUSH2 0x3104 JUMP JUMPDEST JUMP JUMPDEST PUSH1 0x6 SLOAD DUP2 JUMP JUMPDEST PUSH2 0x9BB PUSH2 0x3005 JUMP JUMPDEST PUSH2 0x9C3 PUSH2 0x308C JUMP JUMPDEST PUSH0 PUSH2 0x9CE DUP4 DUP4 PUSH2 0x30D2 JUMP JUMPDEST SWAP1 POP PUSH0 PUSH1 0x2 PUSH0 DUP4 DUP2 MSTORE PUSH1 0x20 ADD SWAP1 DUP2 MSTORE PUSH1 0x20 ADD PUSH0 KECCAK256 SWAP1 POP PUSH0 PUSH1 0x3 PUSH0 DUP5 DUP2 MSTORE PUSH1 0x20 ADD SWAP1 DUP2 MSTORE PUSH1 0x20 ADD PUSH0 KECCAK256 SWAP1 POP PUSH1 0x1 PUSH1 0x5 DUP2 GT ISZERO PUSH2 0xA0C JUMPI PUSH2 0xA0B PUSH2 0x3306 JUMP JUMPDEST JUMPDEST DUP2 PUSH1 0x2 ADD PUSH0 SWAP1 SLOAD SWAP1 PUSH2 0x100 EXP SWAP1 DIV PUSH1 0xFF AND PUSH1 0x5 DUP2 GT ISZERO PUSH2 0xA2F JUMPI PUSH2 0xA2E PUSH2 0x3306 JUMP JUMPDEST JUMPDEST EQ DUP1 PUSH2 0xA6F JUMPI POP PUSH1 0x2 PUSH1 0x5 DUP2 GT ISZERO PUSH2 0xA4A JUMPI PUSH2 0xA49 PUSH2 0x3306 JUMP JUMPDEST JUMPDEST DUP2 PUSH1 0x2 ADD PUSH0 SWAP1 SLOAD SWAP1 PUSH2 0x100 EXP SWAP1 DIV PUSH1 0xFF AND PUSH1 0x5 DUP2 GT ISZERO PUSH2 0xA6D JUMPI PUSH2 0xA6C PUSH2 0x3306 JUMP JUMPDEST JUMPDEST EQ JUMPDEST PUSH2 0xAAE JUMPI PUSH1 0x40 MLOAD PUSH32 0x8C379A000000000000000000000000000000000000000000000000000000000 DUP2 MSTORE PUSH1 0x4 ADD PUSH2 0xAA5 SWAP1 PUSH2 0x370F JUMP JUMPDEST PUSH1 0x40 MLOAD DUP1 SWAP2 SUB SWAP1 REVERT JUMPDEST PUSH1 0x4 DUP2 PUSH1 0x2 ADD PUSH0 PUSH2 0x100 EXP DUP2 SLOAD DUP2 PUSH1 0xFF MUL NOT AND SWAP1 DUP4 PUSH1 0x5 DUP2 GT ISZERO PUSH2 0xAD5 JUMPI PUSH2 0xAD4 PUSH2 0x3306 JUMP JUMPDEST JUMPDEST MUL OR SWAP1 SSTORE POP PUSH0 DUP3 PUSH1 0x2 ADD PUSH0 PUSH2 0x100 EXP DUP2 SLOAD DUP2 PUSH1 0xFF MUL NOT AND SWAP1 DUP4 ISZERO ISZERO MUL OR SWAP1 SSTORE POP PUSH0 DUP2 PUSH0 ADD PUSH0 SWAP1 SLOAD SWAP1 PUSH2 0x100 EXP SWAP1 DIV PUSH20 0xFFFFFFFFFFFFFFFFFFFFFFFFFFFFFFFFFFFFFFFF AND PUSH20 0xFFFFFFFFFFFFFFFFFFFFFFFFFFFFFFFFFFFFFFFF AND DUP3 PUSH1 0x1 ADD SLOAD PUSH1 0x40 MLOAD PUSH2 0xB40 SWAP1 PUSH2 0x37C2 JUMP JUMPDEST PUSH0 PUSH1 0x40 MLOAD DUP1 DUP4 SUB DUP2 DUP6 DUP8 GAS CALL SWAP3 POP POP POP RETURNDATASIZE DUP1 PUSH0 DUP2 EQ PUSH2 0xB7A JUMPI PUSH1 0x40 MLOAD SWAP2 POP PUSH1 0x1F NOT PUSH1 0x3F RETURNDATASIZE ADD AND DUP3 ADD PUSH1 0x40 MSTORE RETURNDATASIZE DUP3 MSTORE RETURNDATASIZE PUSH0 PUSH1 0x20 DUP5 ADD RETURNDATACOPY PUSH2 0xB7F JUMP JUMPDEST PUSH1 0x60 SWAP2 POP JUMPDEST POP POP SWAP1 POP DUP1 PUSH2 0xBC3 JUMPI PUSH1 0x40 MLOAD PUSH32 0x8C379A000000000000000000000000000000000000000000000000000000000 DUP2 MSTORE PUSH1 0x4 ADD PUSH2 0xBBA SWAP1 PUSH2 0x3888 JUMP JUMPDEST PUSH1 0x40 MLOAD DUP1 SWAP2 SUB SWAP1 REVERT JUMPDEST DUP5 DUP7 PUSH20 0xFFFFFFFFFFFFFFFFFFFFFFFFFFFFFFFFFFFFFFFF AND DUP4 PUSH0 ADD PUSH0 SWAP1 SLOAD SWAP1 PUSH2 0x100 EXP SWAP1 DIV PUSH20 0xFFFFFFFFFFFFFFFFFFFFFFFFFFFFFFFFFFFFFFFF AND PUSH20 0xFFFFFFFFFFFFFFFFFFFFFFFFFFFFFFFFFFFFFFFF AND PUSH32 0xF3C3F4A2EB620D4906D0E71A853AED5E409C62169A0D72B7BF57E54EDBEC8152 DUP6 PUSH1 0x1 ADD SLOAD PUSH1 0x40 MLOAD PUSH2 0xC47 SWAP2 SWAP1 PUSH2 0x32DE JUMP JUMPDEST PUSH1 0x40 MLOAD DUP1 SWAP2 SUB SWAP1 LOG4 POP POP POP POP PUSH2 0xC5B PUSH2 0x3104 JUMP JUMPDEST POP POP JUMP JUMPDEST PUSH2 0xC67 PUSH2 0x3005 JUMP JUMPDEST PUSH2 0xC70 PUSH0 PUSH2 0x310D JUMP JUMPDEST JUMP JUMPDEST PUSH2 0xC7A PUSH2 0x308C JUMP JUMPDEST PUSH0 PUSH2 0xC85 DUP4 DUP4 PUSH2 0x30D2 JUMP JUMPDEST SWAP1 POP PUSH0 PUSH1 0x2 PUSH0 DUP4 DUP2 MSTORE PUSH1 0x20 ADD SWAP1 DUP2 MSTORE PUSH1 0x20 ADD PUSH0 KECCAK256 SWAP1 POP PUSH0 PUSH1 0x3 PUSH0 DUP5 DUP2 MSTORE PUSH1 0x20 ADD SWAP1 DUP2 MSTORE PUSH1 0x20 ADD PUSH0 KECCAK256 SWAP1 POP PUSH1 0x2 PUSH1 0x5 DUP2 GT ISZERO PUSH2 0xCC3 JUMPI PUSH2 0xCC2 PUSH2 0x3306 JUMP JUMPDEST JUMPDEST DUP2 PUSH1 0x2 ADD PUSH0 SWAP1 SLOAD SWAP1 PUSH2 0x100 EXP SWAP1 DIV PUSH1 0xFF AND PUSH1 0x5 DUP2 GT ISZERO PUSH2 0xCE6 JUMPI PUSH2 0xCE5 PUSH2 0x3306 JUMP JUMPDEST JUMPDEST EQ PUSH2 0xD26 JUMPI PUSH1 0x40 MLOAD PUSH32 0x8C379A000000000000000000000000000000000000000000000000000000000 DUP2 MSTORE PUSH1 0x4 ADD PUSH2 0xD1D SWAP1 PUSH2 0x38F0 JUMP JUMPDEST PUSH1 0x40 MLOAD DUP1 SWAP2 SUB SWAP1 REVERT JUMPDEST PUSH1 0x7 SLOAD DUP2 PUSH1 0x4 ADD SLOAD PUSH2 0xD38 SWAP2 SWAP1 PUSH2 0x393B JUMP JUMPDEST TIMESTAMP LT ISZERO PUSH2 0xD7A JUMPI PUSH1 0x40 MLOAD PUSH32 0x8C379A000000000000000000000000000000000000000000000000000000000 DUP2 MSTORE PUSH1 0x4 ADD PUSH2 0xD71 SWAP1 PUSH2 0x39B8 JUMP JUMPDEST PUSH1 0x40 MLOAD DUP1 SWAP2 SUB SWAP1 REVERT JUMPDEST PUSH1 0x3 DUP2 PUSH1 0x2 ADD PUSH0 PUSH2 0x100 EXP DUP2 SLOAD DUP2 PUSH1 0xFF MUL NOT AND SWAP1 DUP4 PUSH1 0x5 DUP2 GT ISZERO PUSH2 0xDA1 JUMPI PUSH2 0xDA0 PUSH2 0x3306 JUMP JUMPDEST JUMPDEST MUL OR SWAP1 SSTORE POP TIMESTAMP DUP2 PUSH1 0x5 ADD DUP2 SWAP1 SSTORE POP PUSH0 DUP3 PUSH1 0x2 ADD PUSH0 PUSH2 0x100 EXP DUP2 SLOAD DUP2 PUSH1 0xFF MUL NOT AND SWAP1 DUP4 ISZERO ISZERO MUL OR SWAP1 SSTORE POP PUSH0 PUSH2 0x2710 PUSH1 0x5 SLOAD DUP4 PUSH1 0x1 ADD SLOAD PUSH2 0xDE0 SWAP2 SWAP1 PUSH2 0x39D6 JUMP JUMPDEST PUSH2 0xDEA SWAP2 SWAP1 PUSH2 0x3A44 JUMP JUMPDEST SWAP1 POP PUSH0 DUP2 DUP4 PUSH1 0x1 ADD SLOAD PUSH2 0xDFD SWAP2 SWAP1 PUSH2 0x3A74 JUMP JUMPDEST SWAP1 POP DUP2 PUSH1 0x6 PUSH0 DUP3 DUP3 SLOAD PUSH2 0xE10 SWAP2 SWAP1 PUSH2 0x393B JUMP JUMPDEST SWAP3 POP POP DUP2 SWAP1 SSTORE POP DUP7 PUSH20 0xFFFFFFFFFFFFFFFFFFFFFFFFFFFFFFFFFFFFFFFF AND PUSH4 0x42842E0E DUP6 PUSH0 ADD PUSH0 SWAP1 SLOAD SWAP1 PUSH2 0x100 EXP SWAP1 DIV PUSH20 0xFFFFFFFFFFFFFFFFFFFFFFFFFFFFFFFFFFFFFFFF AND DUP6 PUSH0 ADD PUSH0 SWAP1 SLOAD SWAP1 PUSH2 0x100 EXP SWAP1 DIV PUSH20 0xFFFFFFFFFFFFFFFFFFFFFFFFFFFFFFFFFFFFFFFF AND DUP10 PUSH1 0x40 MLOAD DUP5 PUSH4 0xFFFFFFFF AND PUSH1 0xE0 SHL DUP2 MSTORE PUSH1 0x4 ADD PUSH2 0xE98 SWAP4 SWAP3 SWAP2 SWAP1 PUSH2 0x3AA7 JUMP JUMPDEST PUSH0 PUSH1 0x40 MLOAD DUP1 DUP4 SUB DUP2 PUSH0 DUP8 DUP1 EXTCODESIZE ISZERO DUP1 ISZERO PUSH2 0xEAF JUMPI PUSH0 DUP1 REVERT JUMPDEST POP GAS CALL ISZERO DUP1 ISZERO PUSH2 0xEC1 JUMPI RETURNDATASIZE PUSH0 DUP1 RETURNDATACOPY RETURNDATASIZE PUSH0 REVERT JUMPDEST POP POP POP POP PUSH0 DUP5 PUSH0 ADD PUSH0 SWAP1 SLOAD SWAP1 PUSH2 0x100 EXP SWAP1 DIV PUSH20 0xFFFFFFFFFFFFFFFFFFFFFFFFFFFFFFFFFFFFFFFF AND PUSH20 0xFFFFFFFFFFFFFFFFFFFFFFFFFFFFFFFFFFFFFFFF AND DUP3 PUSH1 0x40 MLOAD PUSH2 0xF0C SWAP1 PUSH2 0x37C2 JUMP JUMPDEST PUSH0 PUSH1 0x40 MLOAD DUP1 DUP4 SUB DUP2 DUP6 DUP8 GAS CALL SWAP3 POP POP POP RETURNDATASIZE DUP1 PUSH0 DUP2 EQ PUSH2 0xF46 JUMPI PUSH1 0x40 MLOAD SWAP2 POP PUSH1 0x1F NOT PUSH1 0x3F RETURNDATASIZE ADD AND DUP3 ADD PUSH1 0x40 MSTORE RETURNDATASIZE DUP3 MSTORE RETURNDATASIZE PUSH0 PUSH1 0x20 DUP5 ADD RETURNDATACOPY PUSH2 0xF4B JUMP JUMPDEST PUSH1 0x60 SWAP2 POP JUMPDEST POP POP SWAP1 POP DUP1 PUSH2 0xF8F JUMPI PUSH1 0x40 MLOAD PUSH32 0x8C379A000000000000000000000000000000000000000000000000000000000 DUP2 MSTORE PUSH1 0x4 ADD PUSH2 0xF86 SWAP1 PUSH2 0x3B26 JUMP JUMPDEST PUSH1 0x40 MLOAD DUP1 SWAP2 SUB SWAP1 REVERT JUMPDEST DUP8 PUSH20 0xFFFFFFFFFFFFFFFFFFFFFFFFFFFFFFFFFFFFFFFF AND DUP6 PUSH0 ADD PUSH0 SWAP1 SLOAD SWAP1 PUSH2 0x100 EXP SWAP1 DIV PUSH20 0xFFFFFFFFFFFFFFFFFFFFFFFFFFFFFFFFFFFFFFFF AND PUSH20 0xFFFFFFFFFFFFFFFFFFFFFFFFFFFFFFFFFFFFFFFF AND DUP6 PUSH0 ADD PUSH0 SWAP1 SLOAD SWAP1 PUSH2 0x100 EXP SWAP1 DIV PUSH20 0xFFFFFFFFFFFFFFFFFFFFFFFFFFFFFFFFFFFFFFFF AND PUSH20 0xFFFFFFFFFFFFFFFFFFFFFFFFFFFFFFFFFFFFFFFF AND PUSH32 0xB425E3970F4F24B813EB760A2AF6BF5F865B81A725FA116350720EF99340A70D DUP11 DUP7 PUSH1 0x40 MLOAD PUSH2 0x1049 SWAP3 SWAP2 SWAP1 PUSH2 0x3B44 JUMP JUMPDEST PUSH1 0x40 MLOAD DUP1 SWAP2 SUB SWAP1 LOG4 POP POP POP POP POP POP PUSH2 0x105F PUSH2 0x3104 JUMP JUMPDEST POP POP JUMP JUMPDEST PUSH0 DUP1 PUSH0 DUP1 PUSH2 0x1071 DUP7 DUP7 PUSH2 0x30D2 JUMP JUMPDEST SWAP1 POP PUSH0 PUSH1 0x2 PUSH0 DUP4 DUP2 MSTORE PUSH1 0x20 ADD SWAP1 DUP2 MSTORE PUSH1 0x20 ADD PUSH0 KECCAK256 PUSH1 0x40 MLOAD DUP1 PUSH1 0x60 ADD PUSH1 0x40 MSTORE SWAP1 DUP2 PUSH0 DUP3 ADD PUSH0 SWAP1 SLOAD SWAP1 PUSH2 0x100 EXP SWAP1 DIV PUSH20 0xFFFFFFFFFFFFFFFFFFFFFFFFFFFFFFFFFFFFFFFF AND PUSH20 0xFFFFFFFFFFFFFFFFFFFFFFFFFFFFFFFFFFFFFFFF AND PUSH20 0xFFFFFFFFFFFFFFFFFFFFFFFFFFFFFFFFFFFFFFFF AND DUP2 MSTORE PUSH1 0x20 ADD PUSH1 0x1 DUP3 ADD SLOAD DUP2 MSTORE PUSH1 0x20 ADD PUSH1 0x2 DUP3 ADD PUSH0 SWAP1 SLOAD SWAP1 PUSH2 0x100 EXP SWAP1 DIV PUSH1 0xFF AND ISZERO ISZERO ISZERO ISZERO DUP2 MSTORE POP POP SWAP1 POP PUSH0 PUSH1 0x3 PUSH0 DUP5 DUP2 MSTORE PUSH1 0x20 ADD SWAP1 DUP2 MSTORE PUSH1 0x20 ADD PUSH0 KECCAK256 PUSH1 0x40 MLOAD DUP1 PUSH1 0xC0 ADD PUSH1 0x40 MSTORE SWAP1 DUP2 PUSH0 DUP3 ADD PUSH0 SWAP1 SLOAD SWAP1 PUSH2 0x100 EXP SWAP1 DIV PUSH20 0xFFFFFFFFFFFFFFFFFFFFFFFFFFFFFFFFFFFFFFFF AND PUSH20 0xFFFFFFFFFFFFFFFFFFFFFFFFFFFFFFFFFFFFFFFF AND PUSH20 0xFFFFFFFFFFFFFFFFFFFFFFFFFFFFFFFFFFFFFFFF AND DUP2 MSTORE PUSH1 0x20 ADD PUSH1 0x1 DUP3 ADD SLOAD DUP2 MSTORE PUSH1 0x20 ADD PUSH1 0x2 DUP3 ADD PUSH0 SWAP1 SLOAD SWAP1 PUSH2 0x100 EXP SWAP1 DIV PUSH1 0xFF AND PUSH1 0x5 DUP2 GT ISZERO PUSH2 0x11A9 JUMPI PUSH2 0x11A8 PUSH2 0x3306 JUMP JUMPDEST JUMPDEST PUSH1 0x5 DUP2 GT ISZERO PUSH2 0x11BB JUMPI PUSH2 0x11BA PUSH2 0x3306 JUMP JUMPDEST JUMPDEST DUP2 MSTORE PUSH1 0x20 ADD PUSH1 0x3 DUP3 ADD SLOAD DUP2 MSTORE PUSH1 0x20 ADD PUSH1 0x4 DUP3 ADD SLOAD DUP2 MSTORE PUSH1 0x20 ADD PUSH1 0x5 DUP3 ADD SLOAD DUP2 MSTORE POP POP SWAP1 POP PUSH0 PUSH1 0x3 PUSH1 0x5 DUP2 GT ISZERO PUSH2 0x11F4 JUMPI PUSH2 0x11F3 PUSH2 0x3306 JUMP JUMPDEST JUMPDEST DUP3 PUSH1 0x40 ADD MLOAD PUSH1 0x5 DUP2 GT ISZERO PUSH2 0x120B JUMPI PUSH2 0x120A PUSH2 0x3306 JUMP JUMPDEST JUMPDEST EQ DUP1 PUSH2 0x123F JUMPI POP PUSH1 0x1 PUSH1 0x5 DUP2 GT ISZERO PUSH2 0x1226 JUMPI PUSH2 0x1225 PUSH2 0x3306 JUMP JUMPDEST JUMPDEST DUP3 PUSH1 0x40 ADD MLOAD PUSH1 0x5 DUP2 GT ISZERO PUSH2 0x123D JUMPI PUSH2 0x123C PUSH2 0x3306 JUMP JUMPDEST JUMPDEST EQ JUMPDEST DUP1 PUSH2 0x1272 JUMPI POP PUSH1 0x2 PUSH1 0x5 DUP2 GT ISZERO PUSH2 0x1259 JUMPI PUSH2 0x1258 PUSH2 0x3306 JUMP JUMPDEST JUMPDEST DUP3 PUSH1 0x40 ADD MLOAD PUSH1 0x5 DUP2 GT ISZERO PUSH2 0x1270 JUMPI PUSH2 0x126F PUSH2 0x3306 JUMP JUMPDEST JUMPDEST EQ JUMPDEST SWAP1 POP DUP3 PUSH0 ADD MLOAD DUP4 PUSH1 0x20 ADD MLOAD DUP3 SWAP7 POP SWAP7 POP SWAP7 POP POP POP POP POP SWAP3 POP SWAP3 POP SWAP3 JUMP JUMPDEST PUSH2 0x1297 PUSH2 0x308C JUMP JUMPDEST PUSH0 PUSH20 0xFFFFFFFFFFFFFFFFFFFFFFFFFFFFFFFFFFFFFFFF AND DUP4 PUSH20 0xFFFFFFFFFFFFFFFFFFFFFFFFFFFFFFFFFFFFFFFF AND SUB PUSH2 0x1305 JUMPI PUSH1 0x40 MLOAD PUSH32 0x8C379A000000000000000000000000000000000000000000000000000000000 DUP2 MSTORE PUSH1 0x4 ADD PUSH2 0x12FC SWAP1 PUSH2 0x3BB5 JUMP JUMPDEST PUSH1 0x40 MLOAD DUP1 SWAP2 SUB SWAP1 REVERT JUMPDEST PUSH0 DUP2 GT PUSH2 0x1347 JUMPI PUSH1 0x40 MLOAD PUSH32 0x8C379A000000000000000000000000000000000000000000000000000000000 DUP2 MSTORE PUSH1 0x4 ADD PUSH2 0x133E SWAP1 PUSH2 0x3C1D JUMP JUMPDEST PUSH1 0x40 MLOAD DUP1 SWAP2 SUB SWAP1 REVERT JUMPDEST PUSH0 DUP4 SWAP1 POP CALLER PUSH20 0xFFFFFFFFFFFFFFFFFFFFFFFFFFFFFFFFFFFFFFFF AND DUP2 PUSH20 0xFFFFFFFFFFFFFFFFFFFFFFFFFFFFFFFFFFFFFFFF AND PUSH4 0x6352211E DUP6 PUSH1 0x40 MLOAD DUP3 PUSH4 0xFFFFFFFF AND PUSH1 0xE0 SHL DUP2 MSTORE PUSH1 0x4 ADD PUSH2 0x139B SWAP2 SWAP1 PUSH2 0x32DE JUMP JUMPDEST PUSH1 0x20 PUSH1 0x40 MLOAD DUP1 DUP4 SUB DUP2 DUP7 GAS STATICCALL ISZERO DUP1 ISZERO PUSH2 0x13B6 JUMPI RETURNDATASIZE PUSH0 DUP1 RETURNDATACOPY RETURNDATASIZE PUSH0 REVERT JUMPDEST POP POP POP POP PUSH1 0x40 MLOAD RETURNDATASIZE PUSH1 0x1F NOT PUSH1 0x1F DUP3 ADD AND DUP3 ADD DUP1 PUSH1 0x40 MSTORE POP DUP2 ADD SWAP1 PUSH2 0x13DA SWAP2 SWAP1 PUSH2 0x3C4F JUMP JUMPDEST PUSH20 0xFFFFFFFFFFFFFFFFFFFFFFFFFFFFFFFFFFFFFFFF AND EQ PUSH2 0x1430 JUMPI PUSH1 0x40 MLOAD PUSH32 0x8C379A000000000000000000000000000000000000000000000000000000000 DUP2 MSTORE PUSH1 0x4 ADD PUSH2 0x1427 SWAP1 PUSH2 0x3CC4 JUMP JUMPDEST PUSH1 0x40 MLOAD DUP1 SWAP2 SUB SWAP1 REVERT JUMPDEST DUP1 PUSH20 0xFFFFFFFFFFFFFFFFFFFFFFFFFFFFFFFFFFFFFFFF AND PUSH4 0xE985E9C5 CALLER ADDRESS PUSH1 0x40 MLOAD DUP4 PUSH4 0xFFFFFFFF AND PUSH1 0xE0 SHL DUP2 MSTORE PUSH1 0x4 ADD PUSH2 0x146B SWAP3 SWAP2 SWAP1 PUSH2 0x3CE2 JUMP JUMPDEST PUSH1 0x20 PUSH1 0x40 MLOAD DUP1 DUP4 SUB DUP2 DUP7 GAS STATICCALL ISZERO DUP1 ISZERO PUSH2 0x1486 JUMPI RETURNDATASIZE PUSH0 DUP1 RETURNDATACOPY RETURNDATASIZE PUSH0 REVERT JUMPDEST POP POP POP POP PUSH1 0x40 MLOAD RETURNDATASIZE PUSH1 0x1F NOT PUSH1 0x1F DUP3 ADD AND DUP3 ADD DUP1 PUSH1 0x40 MSTORE POP DUP2 ADD SWAP1 PUSH2 0x14AA SWAP2 SWAP1 PUSH2 0x3D1D JUMP JUMPDEST DUP1 PUSH2 0x1557 JUMPI POP ADDRESS PUSH20 0xFFFFFFFFFFFFFFFFFFFFFFFFFFFFFFFFFFFFFFFF AND DUP2 PUSH20 0xFFFFFFFFFFFFFFFFFFFFFFFFFFFFFFFFFFFFFFFF AND PUSH4 0x81812FC DUP6 PUSH1 0x40 MLOAD DUP3 PUSH4 0xFFFFFFFF AND PUSH1 0xE0 SHL DUP2 MSTORE PUSH1 0x4 ADD PUSH2 0x1500 SWAP2 SWAP1 PUSH2 0x32DE JUMP JUMPDEST PUSH1 0x20 PUSH1 0x40 MLOAD DUP1 DUP4 SUB DUP2 DUP7 GAS STATICCALL ISZERO DUP1 ISZERO PUSH2 0x151B JUMPI RETURNDATASIZE PUSH0 DUP1 RETURNDATACOPY RETURNDATASIZE PUSH0 REVERT JUMPDEST POP POP POP POP PUSH1 0x40 MLOAD RETURNDATASIZE PUSH1 0x1F NOT PUSH1 0x1F DUP3 ADD AND DUP3 ADD DUP1 PUSH1 0x40 MSTORE POP DUP2 ADD SWAP1 PUSH2 0x153F SWAP2 SWAP1 PUSH2 0x3C4F JUMP JUMPDEST PUSH20 0xFFFFFFFFFFFFFFFFFFFFFFFFFFFFFFFFFFFFFFFF AND EQ JUMPDEST PUSH2 0x1596 JUMPI PUSH1 0x40 MLOAD PUSH32 0x8C379A000000000000000000000000000000000000000000000000000000000 DUP2 MSTORE PUSH1 0x4 ADD PUSH2 0x158D SWAP1 PUSH2 0x3D92 JUMP JUMPDEST PUSH1 0x40 MLOAD DUP1 SWAP2 SUB SWAP1 REVERT JUMPDEST PUSH0 PUSH2 0x15A1 DUP6 DUP6 PUSH2 0x30D2 JUMP JUMPDEST SWAP1 POP PUSH0 PUSH1 0x2 PUSH0 DUP4 DUP2 MSTORE PUSH1 0x20 ADD SWAP1 DUP2 MSTORE PUSH1 0x20 ADD PUSH0 KECCAK256 SWAP1 POP DUP1 PUSH1 0x2 ADD PUSH0 SWAP1 SLOAD SWAP1 PUSH2 0x100 EXP SWAP1 DIV PUSH1 0xFF AND ISZERO PUSH2 0x1608 JUMPI PUSH1 0x40 MLOAD PUSH32 0x8C379A000000000000000000000000000000000000000000000000000000000 DUP2 MSTORE PUSH1 0x4 ADD PUSH2 0x15FF SWAP1 PUSH2 0x3DFA JUMP JUMPDEST PUSH1 0x40 MLOAD DUP1 SWAP2 SUB SWAP1 REVERT JUMPDEST PUSH1 0x40 MLOAD DUP1 PUSH1 0x60 ADD PUSH1 0x40 MSTORE DUP1 CALLER PUSH20 0xFFFFFFFFFFFFFFFFFFFFFFFFFFFFFFFFFFFFFFFF AND DUP2 MSTORE PUSH1 0x20 ADD DUP6 DUP2 MSTORE PUSH1 0x20 ADD PUSH1 0x1 ISZERO ISZERO DUP2 MSTORE POP PUSH1 0x2 PUSH0 DUP5 DUP2 MSTORE PUSH1 0x20 ADD SWAP1 DUP2 MSTORE PUSH1 0x20 ADD PUSH0 KECCAK256 PUSH0 DUP3 ADD MLOAD DUP2 PUSH0 ADD PUSH0 PUSH2 0x100 EXP DUP2 SLOAD DUP2 PUSH20 0xFFFFFFFFFFFFFFFFFFFFFFFFFFFFFFFFFFFFFFFF MUL NOT AND SWAP1 DUP4 PUSH20 0xFFFFFFFFFFFFFFFFFFFFFFFFFFFFFFFFFFFFFFFF AND MUL OR SWAP1 SSTORE POP PUSH1 0x20 DUP3 ADD MLOAD DUP2 PUSH1 0x1 ADD SSTORE PUSH1 0x40 DUP3 ADD MLOAD DUP2 PUSH1 0x2 ADD PUSH0 PUSH2 0x100 EXP DUP2 SLOAD DUP2 PUSH1 0xFF MUL NOT AND SWAP1 DUP4 ISZERO ISZERO MUL OR SWAP1 SSTORE POP SWAP1 POP POP PUSH1 0x4 PUSH1 0x40 MLOAD DUP1 PUSH1 0x40 ADD PUSH1 0x40 MSTORE DUP1 DUP9 PUSH20 0xFFFFFFFFFFFFFFFFFFFFFFFFFFFFFFFFFFFFFFFF AND DUP2 MSTORE PUSH1 0x20 ADD DUP8 DUP2 MSTORE POP SWAP1 DUP1 PUSH1 0x1 DUP2 SLOAD ADD DUP1 DUP3 SSTORE DUP1 SWAP2 POP POP PUSH1 0x1 SWAP1 SUB SWAP1 PUSH0 MSTORE PUSH1 0x20 PUSH0 KECCAK256 SWAP1 PUSH1 0x2 MUL ADD PUSH0 SWAP1 SWAP2 SWAP1 SWAP2 SWAP1 SWAP2 POP PUSH0 DUP3 ADD MLOAD DUP2 PUSH0 ADD PUSH0 PUSH2 0x100 EXP DUP2 SLOAD DUP2 PUSH20 0xFFFFFFFFFFFFFFFFFFFFFFFFFFFFFFFFFFFFFFFF MUL NOT AND SWAP1 DUP4 PUSH20 0xFFFFFFFFFFFFFFFFFFFFFFFFFFFFFFFFFFFFFFFF AND MUL OR SWAP1 SSTORE POP PUSH1 0x20 DUP3 ADD MLOAD DUP2 PUSH1 0x1 ADD SSTORE POP POP DUP5 DUP7 PUSH20 0xFFFFFFFFFFFFFFFFFFFFFFFFFFFFFFFFFFFFFFFF AND CALLER PUSH20 0xFFFFFFFFFFFFFFFFFFFFFFFFFFFFFFFFFFFFFFFF AND PUSH32 0xD9D69FEE247951CC283DC6F5B64C36CE396A36146405A798B86EBFD113C8B5CA DUP8 PUSH1 0x40 MLOAD PUSH2 0x17BE SWAP2 SWAP1 PUSH2 0x32DE JUMP JUMPDEST PUSH1 0x40 MLOAD DUP1 SWAP2 SUB SWAP1 LOG4 POP POP POP PUSH2 0x17D1 PUSH2 0x3104 JUMP JUMPDEST POP POP POP JUMP JUMPDEST PUSH0 DUP1 PUSH0 SWAP1 SLOAD SWAP1 PUSH2 0x100 EXP SWAP1 DIV PUSH20 0xFFFFFFFFFFFFFFFFFFFFFFFFFFFFFFFFFFFFFFFF AND SWAP1 POP SWAP1 JUMP JUMPDEST PUSH0 DUP1 PUSH0 DUP1 PUSH0 DUP1 PUSH0 PUSH2 0x180E DUP10 DUP10 PUSH2 0x30D2 JUMP JUMPDEST SWAP1 POP PUSH0 PUSH1 0x2 PUSH0 DUP4 DUP2 MSTORE PUSH1 0x20 ADD SWAP1 DUP2 MSTORE PUSH1 0x20 ADD PUSH0 KECCAK256 PUSH1 0x40 MLOAD DUP1 PUSH1 0x60 ADD PUSH1 0x40 MSTORE SWAP1 DUP2 PUSH0 DUP3 ADD PUSH0 SWAP1 SLOAD SWAP1 PUSH2 0x100 EXP SWAP1 DIV PUSH20 0xFFFFFFFFFFFFFFFFFFFFFFFFFFFFFFFFFFFFFFFF AND PUSH20 0xFFFFFFFFFFFFFFFFFFFFFFFFFFFFFFFFFFFFFFFF AND PUSH20 0xFFFFFFFFFFFFFFFFFFFFFFFFFFFFFFFFFFFFFFFF AND DUP2 MSTORE PUSH1 0x20 ADD PUSH1 0x1 DUP3 ADD SLOAD DUP2 MSTORE PUSH1 0x20 ADD PUSH1 0x2 DUP3 ADD PUSH0 SWAP1 SLOAD SWAP1 PUSH2 0x100 EXP SWAP1 DIV PUSH1 0xFF AND ISZERO ISZERO ISZERO ISZERO DUP2 MSTORE POP POP SWAP1 POP PUSH0 PUSH1 0x3 PUSH0 DUP5 DUP2 MSTORE PUSH1 0x20 ADD SWAP1 DUP2 MSTORE PUSH1 0x20 ADD PUSH0 KECCAK256 PUSH1 0x40 MLOAD DUP1 PUSH1 0xC0 ADD PUSH1 0x40 MSTORE SWAP1 DUP2 PUSH0 DUP3 ADD PUSH0 SWAP1 SLOAD SWAP1 PUSH2 0x100 EXP SWAP1 DIV PUSH20 0xFFFFFFFFFFFFFFFFFFFFFFFFFFFFFFFFFFFFFFFF AND PUSH20 0xFFFFFFFFFFFFFFFFFFFFFFFFFFFFFFFFFFFFFFFF AND PUSH20 0xFFFFFFFFFFFFFFFFFFFFFFFFFFFFFFFFFFFFFFFF AND DUP2 MSTORE PUSH1 0x20 ADD PUSH1 0x1 DUP3 ADD SLOAD DUP2 MSTORE PUSH1 0x20 ADD PUSH1 0x2 DUP3 ADD PUSH0 SWAP1 SLOAD SWAP1 PUSH2 0x100 EXP SWAP1 DIV PUSH1 0xFF AND PUSH1 0x5 DUP2 GT ISZERO PUSH2 0x1946 JUMPI PUSH2 0x1945 PUSH2 0x3306 JUMP JUMPDEST JUMPDEST PUSH1 0x5 DUP2 GT ISZERO PUSH2 0x1958 JUMPI PUSH2 0x1957 PUSH2 0x3306 JUMP JUMPDEST JUMPDEST DUP2 MSTORE PUSH1 0x20 ADD PUSH1 0x3 DUP3 ADD SLOAD DUP2 MSTORE PUSH1 0x20 ADD PUSH1 0x4 DUP3 ADD SLOAD DUP2 MSTORE PUSH1 0x20 ADD PUSH1 0x5 DUP3 ADD SLOAD DUP2 MSTORE POP POP SWAP1 POP DUP2 PUSH0 ADD MLOAD DUP3 PUSH1 0x20 ADD MLOAD DUP4 PUSH1 0x40 ADD MLOAD DUP4 PUSH0 ADD MLOAD DUP5 PUSH1 0x40 ADD MLOAD DUP6 PUSH1 0x60 ADD MLOAD SWAP9 POP SWAP9 POP SWAP9 POP SWAP9 POP SWAP9 POP SWAP9 POP POP POP POP SWAP3 SWAP6 POP SWAP3 SWAP6 POP SWAP3 SWAP6 JUMP JUMPDEST PUSH2 0x19B9 PUSH2 0x308C JUMP JUMPDEST PUSH0 PUSH2 0x19C4 DUP4 DUP4 PUSH2 0x30D2 JUMP JUMPDEST SWAP1 POP PUSH0 PUSH1 0x2 PUSH0 DUP4 DUP2 MSTORE PUSH1 0x20 ADD SWAP1 DUP2 MSTORE PUSH1 0x20 ADD PUSH0 KECCAK256 SWAP1 POP PUSH0 PUSH1 0x3 PUSH0 DUP5 DUP2 MSTORE PUSH1 0x20 ADD SWAP1 DUP2 MSTORE PUSH1 0x20 ADD PUSH0 KECCAK256 SWAP1 POP PUSH0 PUSH20 0xFFFFFFFFFFFFFFFFFFFFFFFFFFFFFFFFFFFFFFFF AND DUP3 PUSH0 ADD PUSH0 SWAP1 SLOAD SWAP1 PUSH2 0x100 EXP SWAP1 DIV PUSH20 0xFFFFFFFFFFFFFFFFFFFFFFFFFFFFFFFFFFFFFFFF AND PUSH20 0xFFFFFFFFFFFFFFFFFFFFFFFFFFFFFFFFFFFFFFFF AND SUB PUSH2 0x1A7E JUMPI PUSH1 0x40 MLOAD PUSH32 0x8C379A000000000000000000000000000000000000000000000000000000000 DUP2 MSTORE PUSH1 0x4 ADD PUSH2 0x1A75 SWAP1 PUSH2 0x3E62 JUMP JUMPDEST PUSH1 0x40 MLOAD DUP1 SWAP2 SUB SWAP1 REVERT JUMPDEST DUP2 PUSH1 0x2 ADD PUSH0 SWAP1 SLOAD SWAP1 PUSH2 0x100 EXP SWAP1 DIV PUSH1 0xFF AND PUSH2 0x1ACE JUMPI PUSH1 0x40 MLOAD PUSH32 0x8C379A000000000000000000000000000000000000000000000000000000000 DUP2 MSTORE PUSH1 0x4 ADD PUSH2 0x1AC5 SWAP1 PUSH2 0x3ECA JUMP JUMPDEST PUSH1 0x40 MLOAD DUP1 SWAP2 SUB SWAP1 REVERT JUMPDEST PUSH0 PUSH1 0x5 DUP2 GT ISZERO PUSH2 0x1AE1 JUMPI PUSH2 0x1AE0 PUSH2 0x3306 JUMP JUMPDEST JUMPDEST DUP2 PUSH1 0x2 ADD PUSH0 SWAP1 SLOAD SWAP1 PUSH2 0x100 EXP SWAP1 DIV PUSH1 0xFF AND PUSH1 0x5 DUP2 GT ISZERO PUSH2 0x1B04 JUMPI PUSH2 0x1B03 PUSH2 0x3306 JUMP JUMPDEST JUMPDEST EQ PUSH2 0x1B44 JUMPI PUSH1 0x40 MLOAD PUSH32 0x8C379A000000000000000000000000000000000000000000000000000000000 DUP2 MSTORE PUSH1 0x4 ADD PUSH2 0x1B3B SWAP1 PUSH2 0x3F32 JUMP JUMPDEST PUSH1 0x40 MLOAD DUP1 SWAP2 SUB SWAP1 REVERT JUMPDEST DUP2 PUSH1 0x1 ADD SLOAD CALLVALUE EQ PUSH2 0x1B8A JUMPI PUSH1 0x40 MLOAD PUSH32 0x8C379A000000000000000000000000000000000000000000000000000000000 DUP2 MSTORE PUSH1 0x4 ADD PUSH2 0x1B81 SWAP1 PUSH2 0x3F9A JUMP JUMPDEST PUSH1 0x40 MLOAD DUP1 SWAP2 SUB SWAP1 REVERT JUMPDEST DUP2 PUSH0 ADD PUSH0 SWAP1 SLOAD SWAP1 PUSH2 0x100 EXP SWAP1 DIV PUSH20 0xFFFFFFFFFFFFFFFFFFFFFFFFFFFFFFFFFFFFFFFF AND PUSH20 0xFFFFFFFFFFFFFFFFFFFFFFFFFFFFFFFFFFFFFFFF AND CALLER PUSH20 0xFFFFFFFFFFFFFFFFFFFFFFFFFFFFFFFFFFFFFFFF AND SUB PUSH2 0x1C1A JUMPI PUSH1 0x40 MLOAD PUSH32 0x8C379A000000000000000000000000000000000000000000000000000000000 DUP2 MSTORE PUSH1 0x4 ADD PUSH2 0x1C11 SWAP1 PUSH2 0x4002 JUMP JUMPDEST PUSH1 0x40 MLOAD DUP1 SWAP2 SUB SWAP1 REVERT JUMPDEST CALLER DUP2 PUSH0 ADD PUSH0 PUSH2 0x100 EXP DUP2 SLOAD DUP2 PUSH20 0xFFFFFFFFFFFFFFFFFFFFFFFFFFFFFFFFFFFFFFFF MUL NOT AND SWAP1 DUP4 PUSH20 0xFFFFFFFFFFFFFFFFFFFFFFFFFFFFFFFFFFFFFFFF AND MUL OR SWAP1 SSTORE POP CALLVALUE DUP2 PUSH1 0x1 ADD DUP2 SWAP1 SSTORE POP PUSH1 0x1 DUP2 PUSH1 0x2 ADD PUSH0 PUSH2 0x100 EXP DUP2 SLOAD DUP2 PUSH1 0xFF MUL NOT AND SWAP1 DUP4 PUSH1 0x5 DUP2 GT ISZERO PUSH2 0x1C8B JUMPI PUSH2 0x1C8A PUSH2 0x3306 JUMP JUMPDEST JUMPDEST MUL OR SWAP1 SSTORE POP TIMESTAMP DUP2 PUSH1 0x3 ADD DUP2 SWAP1 SSTORE POP DUP4 DUP6 PUSH20 0xFFFFFFFFFFFFFFFFFFFFFFFFFFFFFFFFFFFFFFFF AND CALLER PUSH20 0xFFFFFFFFFFFFFFFFFFFFFFFFFFFFFFFFFFFFFFFF AND PUSH32 0xA326259EC721617ACD3CB2A00BCBEAC91EEFE409880E49AA2BBF473ED648DA49 CALLVALUE PUSH1 0x40 MLOAD PUSH2 0x1CF7 SWAP2 SWAP1 PUSH2 0x32DE JUMP JUMPDEST PUSH1 0x40 MLOAD DUP1 SWAP2 SUB SWAP1 LOG4 POP POP POP PUSH2 0x1D0A PUSH2 0x3104 JUMP JUMPDEST POP POP JUMP JUMPDEST PUSH0 PUSH1 0x4 DUP1 SLOAD SWAP1 POP SWAP1 POP SWAP1 JUMP JUMPDEST PUSH2 0x1D22 PUSH2 0x308C JUMP JUMPDEST PUSH0 PUSH2 0x1D2D DUP4 DUP4 PUSH2 0x30D2 JUMP JUMPDEST SWAP1 POP PUSH0 PUSH1 0x2 PUSH0 DUP4 DUP2 MSTORE PUSH1 0x20 ADD SWAP1 DUP2 MSTORE PUSH1 0x20 ADD PUSH0 KECCAK256 SWAP1 POP PUSH0 PUSH1 0x3 PUSH0 DUP5 DUP2 MSTORE PUSH1 0x20 ADD SWAP1 DUP2 MSTORE PUSH1 0x20 ADD PUSH0 KECCAK256 PUSH1 0x40 MLOAD DUP1 PUSH1 0xC0 ADD PUSH1 0x40 MSTORE SWAP1 DUP2 PUSH0 DUP3 ADD PUSH0 SWAP1 SLOAD SWAP1 PUSH2 0x100 EXP SWAP1 DIV PUSH20 0xFFFFFFFFFFFFFFFFFFFFFFFFFFFFFFFFFFFFFFFF AND PUSH20 0xFFFFFFFFFFFFFFFFFFFFFFFFFFFFFFFFFFFFFFFF AND PUSH20 0xFFFFFFFFFFFFFFFFFFFFFFFFFFFFFFFFFFFFFFFF AND DUP2 MSTORE PUSH1 0x20 ADD PUSH1 0x1 DUP3 ADD SLOAD DUP2 MSTORE PUSH1 0x20 ADD PUSH1 0x2 DUP3 ADD PUSH0 SWAP1 SLOAD SWAP1 PUSH2 0x100 EXP SWAP1 DIV PUSH1 0xFF AND PUSH1 0x5 DUP2 GT ISZERO PUSH2 0x1DE2 JUMPI PUSH2 0x1DE1 PUSH2 0x3306 JUMP JUMPDEST JUMPDEST PUSH1 0x5 DUP2 GT ISZERO PUSH2 0x1DF4 JUMPI PUSH2 0x1DF3 PUSH2 0x3306 JUMP JUMPDEST JUMPDEST DUP2 MSTORE PUSH1 0x20 ADD PUSH1 0x3 DUP3 ADD SLOAD DUP2 MSTORE PUSH1 0x20 ADD PUSH1 0x4 DUP3 ADD SLOAD DUP2 MSTORE PUSH1 0x20 ADD PUSH1 0x5 DUP3 ADD SLOAD DUP2 MSTORE POP POP SWAP1 POP CALLER PUSH20 0xFFFFFFFFFFFFFFFFFFFFFFFFFFFFFFFFFFFFFFFF AND DUP3 PUSH0 ADD PUSH0 SWAP1 SLOAD SWAP1 PUSH2 0x100 EXP SWAP1 DIV PUSH20 0xFFFFFFFFFFFFFFFFFFFFFFFFFFFFFFFFFFFFFFFF AND PUSH20 0xFFFFFFFFFFFFFFFFFFFFFFFFFFFFFFFFFFFFFFFF AND EQ PUSH2 0x1EA8 JUMPI PUSH1 0x40 MLOAD PUSH32 0x8C379A000000000000000000000000000000000000000000000000000000000 DUP2 MSTORE PUSH1 0x4 ADD PUSH2 0x1E9F SWAP1 PUSH2 0x406A JUMP JUMPDEST PUSH1 0x40 MLOAD DUP1 SWAP2 SUB SWAP1 REVERT JUMPDEST DUP2 PUSH1 0x2 ADD PUSH0 SWAP1 SLOAD SWAP1 PUSH2 0x100 EXP SWAP1 DIV PUSH1 0xFF AND PUSH2 0x1EF8 JUMPI PUSH1 0x40 MLOAD PUSH32 0x8C379A000000000000000000000000000000000000000000000000000000000 DUP2 MSTORE PUSH1 0x4 ADD PUSH2 0x1EEF SWAP1 PUSH2 0x3ECA JUMP JUMPDEST PUSH1 0x40 MLOAD DUP1 SWAP2 SUB SWAP1 REVERT JUMPDEST PUSH0 PUSH1 0x5 DUP2 GT ISZERO PUSH2 0x1F0B JUMPI PUSH2 0x1F0A PUSH2 0x3306 JUMP JUMPDEST JUMPDEST DUP2 PUSH1 0x40 ADD MLOAD PUSH1 0x5 DUP2 GT ISZERO PUSH2 0x1F22 JUMPI PUSH2 0x1F21 PUSH2 0x3306 JUMP JUMPDEST JUMPDEST EQ PUSH2 0x1F62 JUMPI PUSH1 0x40 MLOAD PUSH32 0x8C379A000000000000000000000000000000000000000000000000000000000 DUP2 MSTORE PUSH1 0x4 ADD PUSH2 0x1F59 SWAP1 PUSH2 0x3F32 JUMP JUMPDEST PUSH1 0x40 MLOAD DUP1 SWAP2 SUB SWAP1 REVERT JUMPDEST PUSH0 DUP3 PUSH1 0x2 ADD PUSH0 PUSH2 0x100 EXP DUP2 SLOAD DUP2 PUSH1 0xFF MUL NOT AND SWAP1 DUP4 ISZERO ISZERO MUL OR SWAP1 SSTORE POP DUP4 DUP6 PUSH20 0xFFFFFFFFFFFFFFFFFFFFFFFFFFFFFFFFFFFFFFFF AND CALLER PUSH20 0xFFFFFFFFFFFFFFFFFFFFFFFFFFFFFFFFFFFFFFFF AND PUSH32 0xE1BFE61CB157E0896411CCF9A5C40E4C346F7BB6E1D2A44DE4A724F0CB5C6FB0 PUSH1 0x40 MLOAD PUSH1 0x40 MLOAD DUP1 SWAP2 SUB SWAP1 LOG4 POP POP POP PUSH2 0x1FE3 PUSH2 0x3104 JUMP JUMPDEST POP POP JUMP JUMPDEST PUSH2 0x1FEF PUSH2 0x308C JUMP JUMPDEST PUSH0 PUSH2 0x1FFA DUP4 DUP4 PUSH2 0x30D2 JUMP JUMPDEST SWAP1 POP PUSH0 PUSH1 0x2 PUSH0 DUP4 DUP2 MSTORE PUSH1 0x20 ADD SWAP1 DUP2 MSTORE PUSH1 0x20 ADD PUSH0 KECCAK256 SWAP1 POP PUSH0 PUSH1 0x3 PUSH0 DUP5 DUP2 MSTORE PUSH1 0x20 ADD SWAP1 DUP2 MSTORE PUSH1 0x20 ADD PUSH0 KECCAK256 SWAP1 POP CALLER PUSH20 0xFFFFFFFFFFFFFFFFFFFFFFFFFFFFFFFFFFFFFFFF AND DUP2 PUSH0 ADD PUSH0 SWAP1 SLOAD SWAP1 PUSH2 0x100 EXP SWAP1 DIV PUSH20 0xFFFFFFFFFFFFFFFFFFFFFFFFFFFFFFFFFFFFFFFF AND PUSH20 0xFFFFFFFFFFFFFFFFFFFFFFFFFFFFFFFFFFFFFFFF AND EQ PUSH2 0x20B4 JUMPI PUSH1 0x40 MLOAD PUSH32 0x8C379A000000000000000000000000000000000000000000000000000000000 DUP2 MSTORE PUSH1 0x4 ADD PUSH2 0x20AB SWAP1 PUSH2 0x36A7 JUMP JUMPDEST PUSH1 0x40 MLOAD DUP1 SWAP2 SUB SWAP1 REVERT JUMPDEST PUSH1 0x1 PUSH1 0x5 DUP2 GT ISZERO PUSH2 0x20C8 JUMPI PUSH2 0x20C7 PUSH2 0x3306 JUMP JUMPDEST JUMPDEST DUP2 PUSH1 0x2 ADD PUSH0 SWAP1 SLOAD SWAP1 PUSH2 0x100 EXP SWAP1 DIV PUSH1 0xFF AND PUSH1 0x5 DUP2 GT ISZERO PUSH2 0x20EB JUMPI PUSH2 0x20EA PUSH2 0x3306 JUMP JUMPDEST JUMPDEST EQ DUP1 PUSH2 0x212B JUMPI POP PUSH1 0x2 PUSH1 0x5 DUP2 GT ISZERO PUSH2 0x2106 JUMPI PUSH2 0x2105 PUSH2 0x3306 JUMP JUMPDEST JUMPDEST DUP2 PUSH1 0x2 ADD PUSH0 SWAP1 SLOAD SWAP1 PUSH2 0x100 EXP SWAP1 DIV PUSH1 0xFF AND PUSH1 0x5 DUP2 GT ISZERO PUSH2 0x2129 JUMPI PUSH2 0x2128 PUSH2 0x3306 JUMP JUMPDEST JUMPDEST EQ JUMPDEST PUSH2 0x216A JUMPI PUSH1 0x40 MLOAD PUSH32 0x8C379A000000000000000000000000000000000000000000000000000000000 DUP2 MSTORE PUSH1 0x4 ADD PUSH2 0x2161 SWAP1 PUSH2 0x370F JUMP JUMPDEST PUSH1 0x40 MLOAD DUP1 SWAP2 SUB SWAP1 REVERT JUMPDEST PUSH1 0x3 DUP2 PUSH1 0x2 ADD PUSH0 PUSH2 0x100 EXP DUP2 SLOAD DUP2 PUSH1 0xFF MUL NOT AND SWAP1 DUP4 PUSH1 0x5 DUP2 GT ISZERO PUSH2 0x2191 JUMPI PUSH2 0x2190 PUSH2 0x3306 JUMP JUMPDEST JUMPDEST MUL OR SWAP1 SSTORE POP TIMESTAMP DUP2 PUSH1 0x5 ADD DUP2 SWAP1 SSTORE POP PUSH0 DUP3 PUSH1 0x2 ADD PUSH0 PUSH2 0x100 EXP DUP2 SLOAD DUP2 PUSH1 0xFF MUL NOT AND SWAP1 DUP4 ISZERO ISZERO MUL OR SWAP1 SSTORE POP PUSH0 PUSH2 0x2710 PUSH1 0x5 SLOAD DUP4 PUSH1 0x1 ADD SLOAD PUSH2 0x21D0 SWAP2 SWAP1 PUSH2 0x39D6 JUMP JUMPDEST PUSH2 0x21DA SWAP2 SWAP1 PUSH2 0x3A44 JUMP JUMPDEST SWAP1 POP PUSH0 DUP2 DUP4 PUSH1 0x1 ADD SLOAD PUSH2 0x21ED SWAP2 SWAP1 PUSH2 0x3A74 JUMP JUMPDEST SWAP1 POP DUP2 PUSH1 0x6 PUSH0 DUP3 DUP3 SLOAD PUSH2 0x2200 SWAP2 SWAP1 PUSH2 0x393B JUMP JUMPDEST SWAP3 POP POP DUP2 SWAP1 SSTORE POP DUP7 PUSH20 0xFFFFFFFFFFFFFFFFFFFFFFFFFFFFFFFFFFFFFFFF AND PUSH4 0x42842E0E DUP6 PUSH0 ADD PUSH0 SWAP1 SLOAD SWAP1 PUSH2 0x100 EXP SWAP1 DIV PUSH20 0xFFFFFFFFFFFFFFFFFFFFFFFFFFFFFFFFFFFFFFFF AND CALLER DUP10 PUSH1 0x40 MLOAD DUP5 PUSH4 0xFFFFFFFF AND PUSH1 0xE0 SHL DUP2 MSTORE PUSH1 0x4 ADD PUSH2 0x2266 SWAP4 SWAP3 SWAP2 SWAP1 PUSH2 0x3AA7 JUMP JUMPDEST PUSH0 PUSH1 0x40 MLOAD DUP1 DUP4 SUB DUP2 PUSH0 DUP8 DUP1 EXTCODESIZE ISZERO DUP1 ISZERO PUSH2 0x227D JUMPI PUSH0 DUP1 REVERT JUMPDEST POP GAS CALL ISZERO DUP1 ISZERO PUSH2 0x228F JUMPI RETURNDATASIZE PUSH0 DUP1 RETURNDATACOPY RETURNDATASIZE PUSH0 REVERT JUMPDEST POP POP POP POP PUSH0 DUP5 PUSH0 ADD PUSH0 SWAP1 SLOAD SWAP1 PUSH2 0x100 EXP SWAP1 DIV PUSH20 0xFFFFFFFFFFFFFFFFFFFFFFFFFFFFFFFFFFFFFFFF AND PUSH20 0xFFFFFFFFFFFFFFFFFFFFFFFFFFFFFFFFFFFFFFFF AND DUP3 PUSH1 0x40 MLOAD PUSH2 0x22DA SWAP1 PUSH2 0x37C2 JUMP JUMPDEST PUSH0 PUSH1 0x40 MLOAD DUP1 DUP4 SUB DUP2 DUP6 DUP8 GAS CALL SWAP3 POP POP POP RETURNDATASIZE DUP1 PUSH0 DUP2 EQ PUSH2 0x2314 JUMPI PUSH1 0x40 MLOAD SWAP2 POP PUSH1 0x1F NOT PUSH1 0x3F RETURNDATASIZE ADD AND DUP3 ADD PUSH1 0x40 MSTORE RETURNDATASIZE DUP3 MSTORE RETURNDATASIZE PUSH0 PUSH1 0x20 DUP5 ADD RETURNDATACOPY PUSH2 0x2319 JUMP JUMPDEST PUSH1 0x60 SWAP2 POP JUMPDEST POP POP SWAP1 POP DUP1 PUSH2 0x235D JUMPI PUSH1 0x40 MLOAD PUSH32 0x8C379A000000000000000000000000000000000000000000000000000000000 DUP2 MSTORE PUSH1 0x4 ADD PUSH2 0x2354 SWAP1 PUSH2 0x3B26 JUMP JUMPDEST PUSH1 0x40 MLOAD DUP1 SWAP2 SUB SWAP1 REVERT JUMPDEST DUP7 DUP9 PUSH20 0xFFFFFFFFFFFFFFFFFFFFFFFFFFFFFFFFFFFFFFFF AND CALLER PUSH20 0xFFFFFFFFFFFFFFFFFFFFFFFFFFFFFFFFFFFFFFFF AND PUSH32 0xDF462B659B1EF8BF3BB666339203DFF5A51E2430E9CAAF35984DCB2A92C77D66 PUSH1 0x40 MLOAD PUSH1 0x40 MLOAD DUP1 SWAP2 SUB SWAP1 LOG4 DUP8 PUSH20 0xFFFFFFFFFFFFFFFFFFFFFFFFFFFFFFFFFFFFFFFF AND DUP6 PUSH0 ADD PUSH0 SWAP1 SLOAD SWAP1 PUSH2 0x100 EXP SWAP1 DIV PUSH20 0xFFFFFFFFFFFFFFFFFFFFFFFFFFFFFFFFFFFFFFFF AND PUSH20 0xFFFFFFFFFFFFFFFFFFFFFFFFFFFFFFFFFFFFFFFF AND CALLER PUSH20 0xFFFFFFFFFFFFFFFFFFFFFFFFFFFFFFFFFFFFFFFF AND PUSH32 0xB425E3970F4F24B813EB760A2AF6BF5F865B81A725FA116350720EF99340A70D DUP11 DUP7 PUSH1 0x40 MLOAD PUSH2 0x2450 SWAP3 SWAP2 SWAP1 PUSH2 0x3B44 JUMP JUMPDEST PUSH1 0x40 MLOAD DUP1 SWAP2 SUB SWAP1 LOG4 POP POP POP POP POP POP PUSH2 0x2466 PUSH2 0x3104 JUMP JUMPDEST POP POP JUMP JUMPDEST PUSH0 DUP1 PUSH0 DUP1 PUSH0 DUP1 PUSH1 0x4 DUP8 DUP2 SLOAD DUP2 LT PUSH2 0x2484 JUMPI PUSH2 0x2483 PUSH2 0x4088 JUMP JUMPDEST JUMPDEST SWAP1 PUSH0 MSTORE PUSH1 0x20 PUSH0 KECCAK256 SWAP1 PUSH1 0x2 MUL ADD PUSH1 0x40 MLOAD DUP1 PUSH1 0x40 ADD PUSH1 0x40 MSTORE SWAP1 DUP2 PUSH0 DUP3 ADD PUSH0 SWAP1 SLOAD SWAP1 PUSH2 0x100 EXP SWAP1 DIV PUSH20 0xFFFFFFFFFFFFFFFFFFFFFFFFFFFFFFFFFFFFFFFF AND PUSH20 0xFFFFFFFFFFFFFFFFFFFFFFFFFFFFFFFFFFFFFFFF AND PUSH20 0xFFFFFFFFFFFFFFFFFFFFFFFFFFFFFFFFFFFFFFFF AND DUP2 MSTORE PUSH1 0x20 ADD PUSH1 0x1 DUP3 ADD SLOAD DUP2 MSTORE POP POP SWAP1 POP DUP1 PUSH0 ADD MLOAD SWAP6 POP DUP1 PUSH1 0x20 ADD MLOAD SWAP5 POP PUSH0 PUSH2 0x2513 DUP8 DUP8 PUSH2 0x30D2 JUMP JUMPDEST SWAP1 POP PUSH0 PUSH1 0x2 PUSH0 DUP4 DUP2 MSTORE PUSH1 0x20 ADD SWAP1 DUP2 MSTORE PUSH1 0x20 ADD PUSH0 KECCAK256 PUSH1 0x40 MLOAD DUP1 PUSH1 0x60 ADD PUSH1 0x40 MSTORE SWAP1 DUP2 PUSH0 DUP3 ADD PUSH0 SWAP1 SLOAD SWAP1 PUSH2 0x100 EXP SWAP1 DIV PUSH20 0xFFFFFFFFFFFFFFFFFFFFFFFFFFFFFFFFFFFFFFFF AND PUSH20 0xFFFFFFFFFFFFFFFFFFFFFFFFFFFFFFFFFFFFFFFF AND PUSH20 0xFFFFFFFFFFFFFFFFFFFFFFFFFFFFFFFFFFFFFFFF AND DUP2 MSTORE PUSH1 0x20 ADD PUSH1 0x1 DUP3 ADD SLOAD DUP2 MSTORE PUSH1 0x20 ADD PUSH1 0x2 DUP3 ADD PUSH0 SWAP1 SLOAD SWAP1 PUSH2 0x100 EXP SWAP1 DIV PUSH1 0xFF AND ISZERO ISZERO ISZERO ISZERO DUP2 MSTORE POP POP SWAP1 POP PUSH0 PUSH1 0x3 PUSH0 DUP5 DUP2 MSTORE PUSH1 0x20 ADD SWAP1 DUP2 MSTORE PUSH1 0x20 ADD PUSH0 KECCAK256 PUSH1 0x40 MLOAD DUP1 PUSH1 0xC0 ADD PUSH1 0x40 MSTORE SWAP1 DUP2 PUSH0 DUP3 ADD PUSH0 SWAP1 SLOAD SWAP1 PUSH2 0x100 EXP SWAP1 DIV PUSH20 0xFFFFFFFFFFFFFFFFFFFFFFFFFFFFFFFFFFFFFFFF AND PUSH20 0xFFFFFFFFFFFFFFFFFFFFFFFFFFFFFFFFFFFFFFFF AND PUSH20 0xFFFFFFFFFFFFFFFFFFFFFFFFFFFFFFFFFFFFFFFF AND DUP2 MSTORE PUSH1 0x20 ADD PUSH1 0x1 DUP3 ADD SLOAD DUP2 MSTORE PUSH1 0x20 ADD PUSH1 0x2 DUP3 ADD PUSH0 SWAP1 SLOAD SWAP1 PUSH2 0x100 EXP SWAP1 DIV PUSH1 0xFF AND PUSH1 0x5 DUP2 GT ISZERO PUSH2 0x264B JUMPI PUSH2 0x264A PUSH2 0x3306 JUMP JUMPDEST JUMPDEST PUSH1 0x5 DUP2 GT ISZERO PUSH2 0x265D JUMPI PUSH2 0x265C PUSH2 0x3306 JUMP JUMPDEST JUMPDEST DUP2 MSTORE PUSH1 0x20 ADD PUSH1 0x3 DUP3 ADD SLOAD DUP2 MSTORE PUSH1 0x20 ADD PUSH1 0x4 DUP3 ADD SLOAD DUP2 MSTORE PUSH1 0x20 ADD PUSH1 0x5 DUP3 ADD SLOAD DUP2 MSTORE POP POP SWAP1 POP PUSH0 PUSH1 0x3 PUSH1 0x5 DUP2 GT ISZERO PUSH2 0x2696 JUMPI PUSH2 0x2695 PUSH2 0x3306 JUMP JUMPDEST JUMPDEST DUP3 PUSH1 0x40 ADD MLOAD PUSH1 0x5 DUP2 GT ISZERO PUSH2 0x26AD JUMPI PUSH2 0x26AC PUSH2 0x3306 JUMP JUMPDEST JUMPDEST EQ DUP1 PUSH2 0x26E1 JUMPI POP PUSH1 0x1 PUSH1 0x5 DUP2 GT ISZERO PUSH2 0x26C8 JUMPI PUSH2 0x26C7 PUSH2 0x3306 JUMP JUMPDEST JUMPDEST DUP3 PUSH1 0x40 ADD MLOAD PUSH1 0x5 DUP2 GT ISZERO PUSH2 0x26DF JUMPI PUSH2 0x26DE PUSH2 0x3306 JUMP JUMPDEST JUMPDEST EQ JUMPDEST DUP1 PUSH2 0x2714 JUMPI POP PUSH1 0x2 PUSH1 0x5 DUP2 GT ISZERO PUSH2 0x26FB JUMPI PUSH2 0x26FA PUSH2 0x3306 JUMP JUMPDEST JUMPDEST DUP3 PUSH1 0x40 ADD MLOAD PUSH1 0x5 DUP2 GT ISZERO PUSH2 0x2712 JUMPI PUSH2 0x2711 PUSH2 0x3306 JUMP JUMPDEST JUMPDEST EQ JUMPDEST SWAP1 POP DUP10 DUP10 DUP5 PUSH0 ADD MLOAD DUP6 PUSH1 0x20 ADD MLOAD DUP5 SWAP10 POP SWAP10 POP SWAP10 POP SWAP10 POP SWAP10 POP POP POP POP POP POP SWAP2 SWAP4 SWAP6 SWAP1 SWAP3 SWAP5 POP JUMP JUMPDEST PUSH2 0x2742 PUSH2 0x308C JUMP JUMPDEST PUSH0 PUSH2 0x274D DUP4 DUP4 PUSH2 0x30D2 JUMP JUMPDEST SWAP1 POP PUSH0 PUSH1 0x2 PUSH0 DUP4 DUP2 MSTORE PUSH1 0x20 ADD SWAP1 DUP2 MSTORE PUSH1 0x20 ADD PUSH0 KECCAK256 PUSH1 0x40 MLOAD DUP1 PUSH1 0x60 ADD PUSH1 0x40 MSTORE SWAP1 DUP2 PUSH0 DUP3 ADD PUSH0 SWAP1 SLOAD SWAP1 PUSH2 0x100 EXP SWAP1 DIV PUSH20 0xFFFFFFFFFFFFFFFFFFFFFFFFFFFFFFFFFFFFFFFF AND PUSH20 0xFFFFFFFFFFFFFFFFFFFFFFFFFFFFFFFFFFFFFFFF AND PUSH20 0xFFFFFFFFFFFFFFFFFFFFFFFFFFFFFFFFFFFFFFFF AND DUP2 MSTORE PUSH1 0x20 ADD PUSH1 0x1 DUP3 ADD SLOAD DUP2 MSTORE PUSH1 0x20 ADD PUSH1 0x2 DUP3 ADD PUSH0 SWAP1 SLOAD SWAP1 PUSH2 0x100 EXP SWAP1 DIV PUSH1 0xFF AND ISZERO ISZERO ISZERO ISZERO DUP2 MSTORE POP POP SWAP1 POP PUSH0 PUSH1 0x3 PUSH0 DUP5 DUP2 MSTORE PUSH1 0x20 ADD SWAP1 DUP2 MSTORE PUSH1 0x20 ADD PUSH0 KECCAK256 SWAP1 POP CALLER PUSH20 0xFFFFFFFFFFFFFFFFFFFFFFFFFFFFFFFFFFFFFFFF AND DUP3 PUSH0 ADD MLOAD PUSH20 0xFFFFFFFFFFFFFFFFFFFFFFFFFFFFFFFFFFFFFFFF AND EQ PUSH2 0x286B JUMPI PUSH1 0x40 MLOAD PUSH32 0x8C379A000000000000000000000000000000000000000000000000000000000 DUP2 MSTORE PUSH1 0x4 ADD PUSH2 0x2862 SWAP1 PUSH2 0x406A JUMP JUMPDEST PUSH1 0x40 MLOAD DUP1 SWAP2 SUB SWAP1 REVERT JUMPDEST PUSH1 0x1 PUSH1 0x5 DUP2 GT ISZERO PUSH2 0x287F JUMPI PUSH2 0x287E PUSH2 0x3306 JUMP JUMPDEST JUMPDEST DUP2 PUSH1 0x2 ADD PUSH0 SWAP1 SLOAD SWAP1 PUSH2 0x100 EXP SWAP1 DIV PUSH1 0xFF AND PUSH1 0x5 DUP2 GT ISZERO PUSH2 0x28A2 JUMPI PUSH2 0x28A1 PUSH2 0x3306 JUMP JUMPDEST JUMPDEST EQ PUSH2 0x28E2 JUMPI PUSH1 0x40 MLOAD PUSH32 0x8C379A000000000000000000000000000000000000000000000000000000000 DUP2 MSTORE PUSH1 0x4 ADD PUSH2 0x28D9 SWAP1 PUSH2 0x40FF JUMP JUMPDEST PUSH1 0x40 MLOAD DUP1 SWAP2 SUB SWAP1 REVERT JUMPDEST PUSH1 0x2 DUP2 PUSH1 0x2 ADD PUSH0 PUSH2 0x100 EXP DUP2 SLOAD DUP2 PUSH1 0xFF MUL NOT AND SWAP1 DUP4 PUSH1 0x5 DUP2 GT ISZERO PUSH2 0x2909 JUMPI PUSH2 0x2908 PUSH2 0x3306 JUMP JUMPDEST JUMPDEST MUL OR SWAP1 SSTORE POP TIMESTAMP DUP2 PUSH1 0x4 ADD DUP2 SWAP1 SSTORE POP DUP4 DUP6 PUSH20 0xFFFFFFFFFFFFFFFFFFFFFFFFFFFFFFFFFFFFFFFF AND CALLER PUSH20 0xFFFFFFFFFFFFFFFFFFFFFFFFFFFFFFFFFFFFFFFF AND PUSH32 0x52AB4BBF9AE9572FDBCD90FE00D6AC19005A6640B3F5211251F7393CA9A3545B PUSH1 0x40 MLOAD PUSH1 0x40 MLOAD DUP1 SWAP2 SUB SWAP1 LOG4 POP POP POP PUSH2 0x297D PUSH2 0x3104 JUMP JUMPDEST POP POP JUMP JUMPDEST PUSH2 0x2989 PUSH2 0x3005 JUMP JUMPDEST PUSH2 0x2991 PUSH2 0x308C JUMP JUMPDEST PUSH0 PUSH2 0x299C DUP5 DUP5 PUSH2 0x30D2 JUMP JUMPDEST SWAP1 POP PUSH0 PUSH1 0x2 PUSH0 DUP4 DUP2 MSTORE PUSH1 0x20 ADD SWAP1 DUP2 MSTORE PUSH1 0x20 ADD PUSH0 KECCAK256 SWAP1 POP PUSH0 PUSH1 0x3 PUSH0 DUP5 DUP2 MSTORE PUSH1 0x20 ADD SWAP1 DUP2 MSTORE PUSH1 0x20 ADD PUSH0 KECCAK256 SWAP1 POP PUSH1 0x5 DUP1 DUP2 GT ISZERO PUSH2 0x29D9 JUMPI PUSH2 0x29D8 PUSH2 0x3306 JUMP JUMPDEST JUMPDEST DUP2 PUSH1 0x2 ADD PUSH0 SWAP1 SLOAD SWAP1 PUSH2 0x100 EXP SWAP1 DIV PUSH1 0xFF AND PUSH1 0x5 DUP2 GT ISZERO PUSH2 0x29FC JUMPI PUSH2 0x29FB PUSH2 0x3306 JUMP JUMPDEST JUMPDEST EQ PUSH2 0x2A3C JUMPI PUSH1 0x40 MLOAD PUSH32 0x8C379A000000000000000000000000000000000000000000000000000000000 DUP2 MSTORE PUSH1 0x4 ADD PUSH2 0x2A33 SWAP1 PUSH2 0x4167 JUMP JUMPDEST PUSH1 0x40 MLOAD DUP1 SWAP2 SUB SWAP1 REVERT JUMPDEST DUP4 ISZERO PUSH2 0x2BE9 JUMPI PUSH1 0x4 DUP2 PUSH1 0x2 ADD PUSH0 PUSH2 0x100 EXP DUP2 SLOAD DUP2 PUSH1 0xFF MUL NOT AND SWAP1 DUP4 PUSH1 0x5 DUP2 GT ISZERO PUSH2 0x2A69 JUMPI PUSH2 0x2A68 PUSH2 0x3306 JUMP JUMPDEST JUMPDEST MUL OR SWAP1 SSTORE POP PUSH0 DUP3 PUSH1 0x2 ADD PUSH0 PUSH2 0x100 EXP DUP2 SLOAD DUP2 PUSH1 0xFF MUL NOT AND SWAP1 DUP4 ISZERO ISZERO MUL OR SWAP1 SSTORE POP PUSH0 DUP2 PUSH0 ADD PUSH0 SWAP1 SLOAD SWAP1 PUSH2 0x100 EXP SWAP1 DIV PUSH20 0xFFFFFFFFFFFFFFFFFFFFFFFFFFFFFFFFFFFFFFFF AND PUSH20 0xFFFFFFFFFFFFFFFFFFFFFFFFFFFFFFFFFFFFFFFF AND DUP3 PUSH1 0x1 ADD SLOAD PUSH1 0x40 MLOAD PUSH2 0x2AD4 SWAP1 PUSH2 0x37C2 JUMP JUMPDEST PUSH0 PUSH1 0x40 MLOAD DUP1 DUP4 SUB DUP2 DUP6 DUP8 GAS CALL SWAP3 POP POP POP RETURNDATASIZE DUP1 PUSH0 DUP2 EQ PUSH2 0x2B0E JUMPI PUSH1 0x40 MLOAD SWAP2 POP PUSH1 0x1F NOT PUSH1 0x3F RETURNDATASIZE ADD AND DUP3 ADD PUSH1 0x40 MSTORE RETURNDATASIZE DUP3 MSTORE RETURNDATASIZE PUSH0 PUSH1 0x20 DUP5 ADD RETURNDATACOPY PUSH2 0x2B13 JUMP JUMPDEST PUSH1 0x60 SWAP2 POP JUMPDEST POP POP SWAP1 POP DUP1 PUSH2 0x2B57 JUMPI PUSH1 0x40 MLOAD PUSH32 0x8C379A000000000000000000000000000000000000000000000000000000000 DUP2 MSTORE PUSH1 0x4 ADD PUSH2 0x2B4E SWAP1 PUSH2 0x3888 JUMP JUMPDEST PUSH1 0x40 MLOAD DUP1 SWAP2 SUB SWAP1 REVERT JUMPDEST DUP6 DUP8 PUSH20 0xFFFFFFFFFFFFFFFFFFFFFFFFFFFFFFFFFFFFFFFF AND DUP4 PUSH0 ADD PUSH0 SWAP1 SLOAD SWAP1 PUSH2 0x100 EXP SWAP1 DIV PUSH20 0xFFFFFFFFFFFFFFFFFFFFFFFFFFFFFFFFFFFFFFFF AND PUSH20 0xFFFFFFFFFFFFFFFFFFFFFFFFFFFFFFFFFFFFFFFF AND PUSH32 0xF3C3F4A2EB620D4906D0E71A853AED5E409C62169A0D72B7BF57E54EDBEC8152 DUP6 PUSH1 0x1 ADD SLOAD PUSH1 0x40 MLOAD PUSH2 0x2BDB SWAP2 SWAP1 PUSH2 0x32DE JUMP JUMPDEST PUSH1 0x40 MLOAD DUP1 SWAP2 SUB SWAP1 LOG4 POP PUSH2 0x2EC4 JUMP JUMPDEST PUSH1 0x3 DUP2 PUSH1 0x2 ADD PUSH0 PUSH2 0x100 EXP DUP2 SLOAD DUP2 PUSH1 0xFF MUL NOT AND SWAP1 DUP4 PUSH1 0x5 DUP2 GT ISZERO PUSH2 0x2C10 JUMPI PUSH2 0x2C0F PUSH2 0x3306 JUMP JUMPDEST JUMPDEST MUL OR SWAP1 SSTORE POP TIMESTAMP DUP2 PUSH1 0x5 ADD DUP2 SWAP1 SSTORE POP PUSH0 DUP3 PUSH1 0x2 ADD PUSH0 PUSH2 0x100 EXP DUP2 SLOAD DUP2 PUSH1 0xFF MUL NOT AND SWAP1 DUP4 ISZERO ISZERO MUL OR SWAP1 SSTORE POP PUSH0 PUSH2 0x2710 PUSH1 0x5 SLOAD DUP4 PUSH1 0x1 ADD SLOAD PUSH2 0x2C4F SWAP2 SWAP1 PUSH2 0x39D6 JUMP JUMPDEST PUSH2 0x2C59 SWAP2 SWAP1 PUSH2 0x3A44 JUMP JUMPDEST SWAP1 POP PUSH0 DUP2 DUP4 PUSH1 0x1 ADD SLOAD PUSH2 0x2C6C SWAP2 SWAP1 PUSH2 0x3A74 JUMP JUMPDEST SWAP1 POP DUP2 PUSH1 0x6 PUSH0 DUP3 DUP3 SLOAD PUSH2 0x2C7F SWAP2 SWAP1 PUSH2 0x393B JUMP JUMPDEST SWAP3 POP POP DUP2 SWAP1 SSTORE POP DUP8 PUSH20 0xFFFFFFFFFFFFFFFFFFFFFFFFFFFFFFFFFFFFFFFF AND PUSH4 0x42842E0E DUP6 PUSH0 ADD PUSH0 SWAP1 SLOAD SWAP1 PUSH2 0x100 EXP SWAP1 DIV PUSH20 0xFFFFFFFFFFFFFFFFFFFFFFFFFFFFFFFFFFFFFFFF AND DUP6 PUSH0 ADD PUSH0 SWAP1 SLOAD SWAP1 PUSH2 0x100 EXP SWAP1 DIV PUSH20 0xFFFFFFFFFFFFFFFFFFFFFFFFFFFFFFFFFFFFFFFF AND DUP11 PUSH1 0x40 MLOAD DUP5 PUSH4 0xFFFFFFFF AND PUSH1 0xE0 SHL DUP2 MSTORE PUSH1 0x4 ADD PUSH2 0x2D07 SWAP4 SWAP3 SWAP2 SWAP1 PUSH2 0x3AA7 JUMP JUMPDEST PUSH0 PUSH1 0x40 MLOAD DUP1 DUP4 SUB DUP2 PUSH0 DUP8 DUP1 EXTCODESIZE ISZERO DUP1 ISZERO PUSH2 0x2D1E JUMPI PUSH0 DUP1 REVERT JUMPDEST POP GAS CALL ISZERO DUP1 ISZERO PUSH2 0x2D30 JUMPI RETURNDATASIZE PUSH0 DUP1 RETURNDATACOPY RETURNDATASIZE PUSH0 REVERT JUMPDEST POP POP POP POP PUSH0 DUP5 PUSH0 ADD PUSH0 SWAP1 SLOAD SWAP1 PUSH2 0x100 EXP SWAP1 DIV PUSH20 0xFFFFFFFFFFFFFFFFFFFFFFFFFFFFFFFFFFFFFFFF AND PUSH20 0xFFFFFFFFFFFFFFFFFFFFFFFFFFFFFFFFFFFFFFFF AND DUP3 PUSH1 0x40 MLOAD PUSH2 0x2D7B SWAP1 PUSH2 0x37C2 JUMP JUMPDEST PUSH0 PUSH1 0x40 MLOAD DUP1 DUP4 SUB DUP2 DUP6 DUP8 GAS CALL SWAP3 POP POP POP RETURNDATASIZE DUP1 PUSH0 DUP2 EQ PUSH2 0x2DB5 JUMPI PUSH1 0x40 MLOAD SWAP2 POP PUSH1 0x1F NOT PUSH1 0x3F RETURNDATASIZE ADD AND DUP3 ADD PUSH1 0x40 MSTORE RETURNDATASIZE DUP3 MSTORE RETURNDATASIZE PUSH0 PUSH1 0x20 DUP5 ADD RETURNDATACOPY PUSH2 0x2DBA JUMP JUMPDEST PUSH1 0x60 SWAP2 POP JUMPDEST POP POP SWAP1 POP DUP1 PUSH2 0x2DFE JUMPI PUSH1 0x40 MLOAD PUSH32 0x8C379A000000000000000000000000000000000000000000000000000000000 DUP2 MSTORE PUSH1 0x4 ADD PUSH2 0x2DF5 SWAP1 PUSH2 0x3B26 JUMP JUMPDEST PUSH1 0x40 MLOAD DUP1 SWAP2 SUB SWAP1 REVERT JUMPDEST DUP9 PUSH20 0xFFFFFFFFFFFFFFFFFFFFFFFFFFFFFFFFFFFFFFFF AND DUP6 PUSH0 ADD PUSH0 SWAP1 SLOAD SWAP1 PUSH2 0x100 EXP SWAP1 DIV PUSH20 0xFFFFFFFFFFFFFFFFFFFFFFFFFFFFFFFFFFFFFFFF AND PUSH20 0xFFFFFFFFFFFFFFFFFFFFFFFFFFFFFFFFFFFFFFFF AND DUP6 PUSH0 ADD PUSH0 SWAP1 SLOAD SWAP1 PUSH2 0x100 EXP SWAP1 DIV PUSH20 0xFFFFFFFFFFFFFFFFFFFFFFFFFFFFFFFFFFFFFFFF AND PUSH20 0xFFFFFFFFFFFFFFFFFFFFFFFFFFFFFFFFFFFFFFFF AND PUSH32 0xB425E3970F4F24B813EB760A2AF6BF5F865B81A725FA116350720EF99340A70D DUP12 DUP7 PUSH1 0x40 MLOAD PUSH2 0x2EB8 SWAP3 SWAP2 SWAP1 PUSH2 0x3B44 JUMP JUMPDEST PUSH1 0x40 MLOAD DUP1 SWAP2 SUB SWAP1 LOG4 POP POP POP JUMPDEST DUP5 DUP7 PUSH20 0xFFFFFFFFFFFFFFFFFFFFFFFFFFFFFFFFFFFFFFFF AND PUSH32 0x798E68462B6674448EA3DB700362FAF55BFCB6099C8067A1C74779939526F8A9 DUP7 PUSH1 0x40 MLOAD PUSH2 0x2F0B SWAP2 SWAP1 PUSH2 0x4185 JUMP JUMPDEST PUSH1 0x40 MLOAD DUP1 SWAP2 SUB SWAP1 LOG3 POP POP POP PUSH2 0x2F1E PUSH2 0x3104 JUMP JUMPDEST POP POP POP JUMP JUMPDEST PUSH1 0x7 SLOAD DUP2 JUMP JUMPDEST PUSH2 0x2F31 PUSH2 0x3005 JUMP JUMPDEST PUSH0 PUSH20 0xFFFFFFFFFFFFFFFFFFFFFFFFFFFFFFFFFFFFFFFF AND DUP2 PUSH20 0xFFFFFFFFFFFFFFFFFFFFFFFFFFFFFFFFFFFFFFFF AND SUB PUSH2 0x2FA1 JUMPI PUSH0 PUSH1 0x40 MLOAD PUSH32 0x1E4FBDF700000000000000000000000000000000000000000000000000000000 DUP2 MSTORE PUSH1 0x4 ADD PUSH2 0x2F98 SWAP2 SWAP1 PUSH2 0x3477 JUMP JUMPDEST PUSH1 0x40 MLOAD DUP1 SWAP2 SUB SWAP1 REVERT JUMPDEST PUSH2 0x2FAA DUP2 PUSH2 0x310D JUMP JUMPDEST POP JUMP JUMPDEST PUSH2 0x2FB5 PUSH2 0x3005 JUMP JUMPDEST PUSH3 0x15180 DUP2 LT ISZERO PUSH2 0x2FFB JUMPI PUSH1 0x40 MLOAD PUSH32 0x8C379A000000000000000000000000000000000000000000000000000000000 DUP2 MSTORE PUSH1 0x4 ADD PUSH2 0x2FF2 SWAP1 PUSH2 0x41E8 JUMP JUMPDEST PUSH1 0x40 MLOAD DUP1 SWAP2 SUB SWAP1 REVERT JUMPDEST DUP1 PUSH1 0x7 DUP2 SWAP1 SSTORE POP POP JUMP JUMPDEST PUSH2 0x300D PUSH2 0x31CE JUMP JUMPDEST PUSH20 0xFFFFFFFFFFFFFFFFFFFFFFFFFFFFFFFFFFFFFFFF AND PUSH2 0x302B PUSH2 0x17D6 JUMP JUMPDEST PUSH20 0xFFFFFFFFFFFFFFFFFFFFFFFFFFFFFFFFFFFFFFFF AND EQ PUSH2 0x308A JUMPI PUSH2 0x304E PUSH2 0x31CE JUMP JUMPDEST PUSH1 0x40 MLOAD PUSH32 0x118CDAA700000000000000000000000000000000000000000000000000000000 DUP2 MSTORE PUSH1 0x4 ADD PUSH2 0x3081 SWAP2 SWAP1 PUSH2 0x3477 JUMP JUMPDEST PUSH1 0x40 MLOAD DUP1 SWAP2 SUB SWAP1 REVERT JUMPDEST JUMP JUMPDEST PUSH1 0x2 PUSH1 0x1 SLOAD SUB PUSH2 0x30C8 JUMPI PUSH1 0x40 MLOAD PUSH32 0x3EE5AEB500000000000000000000000000000000000000000000000000000000 DUP2 MSTORE PUSH1 0x4 ADD PUSH1 0x40 MLOAD DUP1 SWAP2 SUB SWAP1 REVERT JUMPDEST PUSH1 0x2 PUSH1 0x1 DUP2 SWAP1 SSTORE POP JUMP JUMPDEST PUSH0 DUP3 DUP3 PUSH1 0x40 MLOAD PUSH1 0x20 ADD PUSH2 0x30E6 SWAP3 SWAP2 SWAP1 PUSH2 0x426B JUMP JUMPDEST PUSH1 0x40 MLOAD PUSH1 0x20 DUP2 DUP4 SUB SUB DUP2 MSTORE SWAP1 PUSH1 0x40 MSTORE DUP1 MLOAD SWAP1 PUSH1 0x20 ADD KECCAK256 SWAP1 POP SWAP3 SWAP2 POP POP JUMP JUMPDEST PUSH1 0x1 DUP1 DUP2 SWAP1 SSTORE POP JUMP JUMPDEST PUSH0 DUP1 PUSH0 SWAP1 SLOAD SWAP1 PUSH2 0x100 EXP SWAP1 DIV PUSH20 0xFFFFFFFFFFFFFFFFFFFFFFFFFFFFFFFFFFFFFFFF AND SWAP1 POP DUP2 PUSH0 DUP1 PUSH2 0x100 EXP DUP2 SLOAD DUP2 PUSH20 0xFFFFFFFFFFFFFFFFFFFFFFFFFFFFFFFFFFFFFFFF MUL NOT AND SWAP1 DUP4 PUSH20 0xFFFFFFFFFFFFFFFFFFFFFFFFFFFFFFFFFFFFFFFF AND MUL OR SWAP1 SSTORE POP DUP2 PUSH20 0xFFFFFFFFFFFFFFFFFFFFFFFFFFFFFFFFFFFFFFFF AND DUP2 PUSH20 0xFFFFFFFFFFFFFFFFFFFFFFFFFFFFFFFFFFFFFFFF AND PUSH32 0x8BE0079C531659141344CD1FD0A4F28419497F9722A3DAAFE3B4186F6B6457E0 PUSH1 0x40 MLOAD PUSH1 0x40 MLOAD DUP1 SWAP2 SUB SWAP1 LOG3 POP POP JUMP JUMPDEST PUSH0 CALLER SWAP1 POP SWAP1 JUMP JUMPDEST PUSH0 DUP1 REVERT JUMPDEST PUSH0 DUP2 SWAP1 POP SWAP2 SWAP1 POP JUMP JUMPDEST PUSH2 0x31EB DUP2 PUSH2 0x31D9 JUMP JUMPDEST DUP2 EQ PUSH2 0x31F5 JUMPI PUSH0 DUP1 REVERT JUMPDEST POP JUMP JUMPDEST PUSH0 DUP2 CALLDATALOAD SWAP1 POP PUSH2 0x3206 DUP2 PUSH2 0x31E2 JUMP JUMPDEST SWAP3 SWAP2 POP POP JUMP JUMPDEST PUSH0 PUSH1 0x20 DUP3 DUP5 SUB SLT ISZERO PUSH2 0x3221 JUMPI PUSH2 0x3220 PUSH2 0x31D5 JUMP JUMPDEST JUMPDEST PUSH0 PUSH2 0x322E DUP5 DUP3 DUP6 ADD PUSH2 0x31F8 JUMP JUMPDEST SWAP2 POP POP SWAP3 SWAP2 POP POP JUMP JUMPDEST PUSH0 PUSH20 0xFFFFFFFFFFFFFFFFFFFFFFFFFFFFFFFFFFFFFFFF DUP3 AND SWAP1 POP SWAP2 SWAP1 POP JUMP JUMPDEST PUSH0 PUSH2 0x3260 DUP3 PUSH2 0x3237 JUMP JUMPDEST SWAP1 POP SWAP2 SWAP1 POP JUMP JUMPDEST PUSH2 0x3270 DUP2 PUSH2 0x3256 JUMP JUMPDEST DUP2 EQ PUSH2 0x327A JUMPI PUSH0 DUP1 REVERT JUMPDEST POP JUMP JUMPDEST PUSH0 DUP2 CALLDATALOAD SWAP1 POP PUSH2 0x328B DUP2 PUSH2 0x3267 JUMP JUMPDEST SWAP3 SWAP2 POP POP JUMP JUMPDEST PUSH0 DUP1 PUSH1 0x40 DUP4 DUP6 SUB SLT ISZERO PUSH2 0x32A7 JUMPI PUSH2 0x32A6 PUSH2 0x31D5 JUMP JUMPDEST JUMPDEST PUSH0 PUSH2 0x32B4 DUP6 DUP3 DUP7 ADD PUSH2 0x327D JUMP JUMPDEST SWAP3 POP POP PUSH1 0x20 PUSH2 0x32C5 DUP6 DUP3 DUP7 ADD PUSH2 0x31F8 JUMP JUMPDEST SWAP2 POP POP SWAP3 POP SWAP3 SWAP1 POP JUMP JUMPDEST PUSH2 0x32D8 DUP2 PUSH2 0x31D9 JUMP JUMPDEST DUP3 MSTORE POP POP JUMP JUMPDEST PUSH0 PUSH1 0x20 DUP3 ADD SWAP1 POP PUSH2 0x32F1 PUSH0 DUP4 ADD DUP5 PUSH2 0x32CF JUMP JUMPDEST SWAP3 SWAP2 POP POP JUMP JUMPDEST PUSH2 0x3300 DUP2 PUSH2 0x3256 JUMP JUMPDEST DUP3 MSTORE POP POP JUMP JUMPDEST PUSH32 0x4E487B7100000000000000000000000000000000000000000000000000000000 PUSH0 MSTORE PUSH1 0x21 PUSH1 0x4 MSTORE PUSH1 0x24 PUSH0 REVERT JUMPDEST PUSH1 0x6 DUP2 LT PUSH2 0x3344 JUMPI PUSH2 0x3343 PUSH2 0x3306 JUMP JUMPDEST JUMPDEST POP JUMP JUMPDEST PUSH0 DUP2 SWAP1 POP PUSH2 0x3354 DUP3 PUSH2 0x3333 JUMP JUMPDEST SWAP2 SWAP1 POP JUMP JUMPDEST PUSH0 PUSH2 0x3363 DUP3 PUSH2 0x3347 JUMP JUMPDEST SWAP1 POP SWAP2 SWAP1 POP JUMP JUMPDEST PUSH2 0x3373 DUP2 PUSH2 0x3359 JUMP JUMPDEST DUP3 MSTORE POP POP JUMP JUMPDEST PUSH0 PUSH1 0xC0 DUP3 ADD SWAP1 POP PUSH2 0x338C PUSH0 DUP4 ADD DUP10 PUSH2 0x32F7 JUMP JUMPDEST PUSH2 0x3399 PUSH1 0x20 DUP4 ADD DUP9 PUSH2 0x32CF JUMP JUMPDEST PUSH2 0x33A6 PUSH1 0x40 DUP4 ADD DUP8 PUSH2 0x336A JUMP JUMPDEST PUSH2 0x33B3 PUSH1 0x60 DUP4 ADD DUP7 PUSH2 0x32CF JUMP JUMPDEST PUSH2 0x33C0 PUSH1 0x80 DUP4 ADD DUP6 PUSH2 0x32CF JUMP JUMPDEST PUSH2 0x33CD PUSH1 0xA0 DUP4 ADD DUP5 PUSH2 0x32CF JUMP JUMPDEST SWAP8 SWAP7 POP POP POP POP POP POP POP JUMP JUMPDEST PUSH0 DUP2 ISZERO ISZERO SWAP1 POP SWAP2 SWAP1 POP JUMP JUMPDEST PUSH2 0x33EC DUP2 PUSH2 0x33D8 JUMP JUMPDEST DUP3 MSTORE POP POP JUMP JUMPDEST PUSH0 PUSH1 0x60 DUP3 ADD SWAP1 POP PUSH2 0x3405 PUSH0 DUP4 ADD DUP7 PUSH2 0x32F7 JUMP JUMPDEST PUSH2 0x3412 PUSH1 0x20 DUP4 ADD DUP6 PUSH2 0x32CF JUMP JUMPDEST PUSH2 0x341F PUSH1 0x40 DUP4 ADD DUP5 PUSH2 0x33E3 JUMP JUMPDEST SWAP5 SWAP4 POP POP POP POP JUMP JUMPDEST PUSH0 DUP1 PUSH0 PUSH1 0x60 DUP5 DUP7 SUB SLT ISZERO PUSH2 0x343E JUMPI PUSH2 0x343D PUSH2 0x31D5 JUMP JUMPDEST JUMPDEST PUSH0 PUSH2 0x344B DUP7 DUP3 DUP8 ADD PUSH2 0x327D JUMP JUMPDEST SWAP4 POP POP PUSH1 0x20 PUSH2 0x345C DUP7 DUP3 DUP8 ADD PUSH2 0x31F8 JUMP JUMPDEST SWAP3 POP POP PUSH1 0x40 PUSH2 0x346D DUP7 DUP3 DUP8 ADD PUSH2 0x31F8 JUMP JUMPDEST SWAP2 POP POP SWAP3 POP SWAP3 POP SWAP3 JUMP JUMPDEST PUSH0 PUSH1 0x20 DUP3 ADD SWAP1 POP PUSH2 0x348A PUSH0 DUP4 ADD DUP5 PUSH2 0x32F7 JUMP JUMPDEST SWAP3 SWAP2 POP POP JUMP JUMPDEST PUSH0 PUSH1 0xC0 DUP3 ADD SWAP1 POP PUSH2 0x34A3 PUSH0 DUP4 ADD DUP10 PUSH2 0x32F7 JUMP JUMPDEST PUSH2 0x34B0 PUSH1 0x20 DUP4 ADD DUP9 PUSH2 0x32CF JUMP JUMPDEST PUSH2 0x34BD PUSH1 0x40 DUP4 ADD DUP8 PUSH2 0x33E3 JUMP JUMPDEST PUSH2 0x34CA PUSH1 0x60 DUP4 ADD DUP7 PUSH2 0x32F7 JUMP JUMPDEST PUSH2 0x34D7 PUSH1 0x80 DUP4 ADD DUP6 PUSH2 0x336A JUMP JUMPDEST PUSH2 0x34E4 PUSH1 0xA0 DUP4 ADD DUP5 PUSH2 0x32CF JUMP JUMPDEST SWAP8 SWAP7 POP POP POP POP POP POP POP JUMP JUMPDEST PUSH0 PUSH1 0xA0 DUP3 ADD SWAP1 POP PUSH2 0x3502 PUSH0 DUP4 ADD DUP9 PUSH2 0x32F7 JUMP JUMPDEST PUSH2 0x350F PUSH1 0x20 DUP4 ADD DUP8 PUSH2 0x32CF JUMP JUMPDEST PUSH2 0x351C PUSH1 0x40 DUP4 ADD DUP7 PUSH2 0x32F7 JUMP JUMPDEST PUSH2 0x3529 PUSH1 0x60 DUP4 ADD DUP6 PUSH2 0x32CF JUMP JUMPDEST PUSH2 0x3536 PUSH1 0x80 DUP4 ADD DUP5 PUSH2 0x33E3 JUMP JUMPDEST SWAP7 SWAP6 POP POP POP POP POP POP JUMP JUMPDEST PUSH2 0x3549 DUP2 PUSH2 0x33D8 JUMP JUMPDEST DUP2 EQ PUSH2 0x3553 JUMPI PUSH0 DUP1 REVERT JUMPDEST POP JUMP JUMPDEST PUSH0 DUP2 CALLDATALOAD SWAP1 POP PUSH2 0x3564 DUP2 PUSH2 0x3540 JUMP JUMPDEST SWAP3 SWAP2 POP POP JUMP JUMPDEST PUSH0 DUP1 PUSH0 PUSH1 0x60 DUP5 DUP7 SUB SLT ISZERO PUSH2 0x3581 JUMPI PUSH2 0x3580 PUSH2 0x31D5 JUMP JUMPDEST JUMPDEST PUSH0 PUSH2 0x358E DUP7 DUP3 DUP8 ADD PUSH2 0x327D JUMP JUMPDEST SWAP4 POP POP PUSH1 0x20 PUSH2 0x359F DUP7 DUP3 DUP8 ADD PUSH2 0x31F8 JUMP JUMPDEST SWAP3 POP POP PUSH1 0x40 PUSH2 0x35B0 DUP7 DUP3 DUP8 ADD PUSH2 0x3556 JUMP JUMPDEST SWAP2 POP POP SWAP3 POP SWAP3 POP SWAP3 JUMP JUMPDEST PUSH0 PUSH1 0x20 DUP3 DUP5 SUB SLT ISZERO PUSH2 0x35CF JUMPI PUSH2 0x35CE PUSH2 0x31D5 JUMP JUMPDEST JUMPDEST PUSH0 PUSH2 0x35DC DUP5 DUP3 DUP6 ADD PUSH2 0x327D JUMP JUMPDEST SWAP2 POP POP SWAP3 SWAP2 POP POP JUMP JUMPDEST PUSH0 DUP3 DUP3 MSTORE PUSH1 0x20 DUP3 ADD SWAP1 POP SWAP3 SWAP2 POP POP JUMP JUMPDEST PUSH32 0x4645455F544F4F5F484947480000000000000000000000000000000000000000 PUSH0 DUP3 ADD MSTORE POP JUMP JUMPDEST PUSH0 PUSH2 0x3629 PUSH1 0xC DUP4 PUSH2 0x35E5 JUMP JUMPDEST SWAP2 POP PUSH2 0x3634 DUP3 PUSH2 0x35F5 JUMP JUMPDEST PUSH1 0x20 DUP3 ADD SWAP1 POP SWAP2 SWAP1 POP JUMP JUMPDEST PUSH0 PUSH1 0x20 DUP3 ADD SWAP1 POP DUP2 DUP2 SUB PUSH0 DUP4 ADD MSTORE PUSH2 0x3656 DUP2 PUSH2 0x361D JUMP JUMPDEST SWAP1 POP SWAP2 SWAP1 POP JUMP JUMPDEST PUSH32 0x4E4F545F42555945520000000000000000000000000000000000000000000000 PUSH0 DUP3 ADD MSTORE POP JUMP JUMPDEST PUSH0 PUSH2 0x3691 PUSH1 0x9 DUP4 PUSH2 0x35E5 JUMP JUMPDEST SWAP2 POP PUSH2 0x369C DUP3 PUSH2 0x365D JUMP JUMPDEST PUSH1 0x20 DUP3 ADD SWAP1 POP SWAP2 SWAP1 POP JUMP JUMPDEST PUSH0 PUSH1 0x20 DUP3 ADD SWAP1 POP DUP2 DUP2 SUB PUSH0 DUP4 ADD MSTORE PUSH2 0x36BE DUP2 PUSH2 0x3685 JUMP JUMPDEST SWAP1 POP SWAP2 SWAP1 POP JUMP JUMPDEST PUSH32 0x494E56414C49445F535441545553000000000000000000000000000000000000 PUSH0 DUP3 ADD MSTORE POP JUMP JUMPDEST PUSH0 PUSH2 0x36F9 PUSH1 0xE DUP4 PUSH2 0x35E5 JUMP JUMPDEST SWAP2 POP PUSH2 0x3704 DUP3 PUSH2 0x36C5 JUMP JUMPDEST PUSH1 0x20 DUP3 ADD SWAP1 POP SWAP2 SWAP1 POP JUMP JUMPDEST PUSH0 PUSH1 0x20 DUP3 ADD SWAP1 POP DUP2 DUP2 SUB PUSH0 DUP4 ADD MSTORE PUSH2 0x3726 DUP2 PUSH2 0x36ED JUMP JUMPDEST SWAP1 POP SWAP2 SWAP1 POP JUMP JUMPDEST PUSH32 0x4E4F5F4645455300000000000000000000000000000000000000000000000000 PUSH0 DUP3 ADD MSTORE POP JUMP JUMPDEST PUSH0 PUSH2 0x3761 PUSH1 0x7 DUP4 PUSH2 0x35E5 JUMP JUMPDEST SWAP2 POP PUSH2 0x376C DUP3 PUSH2 0x372D JUMP JUMPDEST PUSH1 0x20 DUP3 ADD SWAP1 POP SWAP2 SWAP1 POP JUMP JUMPDEST PUSH0 PUSH1 0x20 DUP3 ADD SWAP1 POP DUP2 DUP2 SUB PUSH0 DUP4 ADD MSTORE PUSH2 0x378E DUP2 PUSH2 0x3755 JUMP JUMPDEST SWAP1 POP SWAP2 SWAP1 POP JUMP JUMPDEST PUSH0 DUP2 SWAP1 POP SWAP3 SWAP2 POP POP JUMP JUMPDEST POP JUMP JUMPDEST PUSH0 PUSH2 0x37AD PUSH0 DUP4 PUSH2 0x3795 JUMP JUMPDEST SWAP2 POP PUSH2 0x37B8 DUP3 PUSH2 0x379F JUMP JUMPDEST PUSH0 DUP3 ADD SWAP1 POP SWAP2 SWAP1 POP JUMP JUMPDEST PUSH0 PUSH2 0x37CC DUP3 PUSH2 0x37A2 JUMP JUMPDEST SWAP2 POP DUP2 SWAP1 POP SWAP2 SWAP1 POP JUMP JUMPDEST PUSH32 0x57495448445241575F4641494C00000000000000000000000000000000000000 PUSH0 DUP3 ADD MSTORE POP JUMP JUMPDEST PUSH0 PUSH2 0x380A PUSH1 0xD DUP4 PUSH2 0x35E5 JUMP JUMPDEST SWAP2 POP PUSH2 0x3815 DUP3 PUSH2 0x37D6 JUMP JUMPDEST PUSH1 0x20 DUP3 ADD SWAP1 POP SWAP2 SWAP1 POP JUMP JUMPDEST PUSH0 PUSH1 0x20 DUP3 ADD SWAP1 POP DUP2 DUP2 SUB PUSH0 DUP4 ADD MSTORE PUSH2 0x3837 DUP2 PUSH2 0x37FE JUMP JUMPDEST SWAP1 POP SWAP2 SWAP1 POP JUMP JUMPDEST PUSH32 0x524546554E445F4641494C000000000000000000000000000000000000000000 PUSH0 DUP3 ADD MSTORE POP JUMP JUMPDEST PUSH0 PUSH2 0x3872 PUSH1 0xB DUP4 PUSH2 0x35E5 JUMP JUMPDEST SWAP2 POP PUSH2 0x387D DUP3 PUSH2 0x383E JUMP JUMPDEST PUSH1 0x20 DUP3 ADD SWAP1 POP SWAP2 SWAP1 POP JUMP JUMPDEST PUSH0 PUSH1 0x20 DUP3 ADD SWAP1 POP DUP2 DUP2 SUB PUSH0 DUP4 ADD MSTORE PUSH2 0x389F DUP2 PUSH2 0x3866 JUMP JUMPDEST SWAP1 POP SWAP2 SWAP1 POP JUMP JUMPDEST PUSH32 0x4E4F545F44454C49564552454400000000000000000000000000000000000000 PUSH0 DUP3 ADD MSTORE POP JUMP JUMPDEST PUSH0 PUSH2 0x38DA PUSH1 0xD DUP4 PUSH2 0x35E5 JUMP JUMPDEST SWAP2 POP PUSH2 0x38E5 DUP3 PUSH2 0x38A6 JUMP JUMPDEST PUSH1 0x20 DUP3 ADD SWAP1 POP SWAP2 SWAP1 POP JUMP JUMPDEST PUSH0 PUSH1 0x20 DUP3 ADD SWAP1 POP DUP2 DUP2 SUB PUSH0 DUP4 ADD MSTORE PUSH2 0x3907 DUP2 PUSH2 0x38CE JUMP JUMPDEST SWAP1 POP SWAP2 SWAP1 POP JUMP JUMPDEST PUSH32 0x4E487B7100000000000000000000000000000000000000000000000000000000 PUSH0 MSTORE PUSH1 0x11 PUSH1 0x4 MSTORE PUSH1 0x24 PUSH0 REVERT JUMPDEST PUSH0 PUSH2 0x3945 DUP3 PUSH2 0x31D9 JUMP JUMPDEST SWAP2 POP PUSH2 0x3950 DUP4 PUSH2 0x31D9 JUMP JUMPDEST SWAP3 POP DUP3 DUP3 ADD SWAP1 POP DUP1 DUP3 GT ISZERO PUSH2 0x3968 JUMPI PUSH2 0x3967 PUSH2 0x390E JUMP JUMPDEST JUMPDEST SWAP3 SWAP2 POP POP JUMP JUMPDEST PUSH32 0x54494D454F55545F4E4F545F5245414348454400000000000000000000000000 PUSH0 DUP3 ADD MSTORE POP JUMP JUMPDEST PUSH0 PUSH2 0x39A2 PUSH1 0x13 DUP4 PUSH2 0x35E5 JUMP JUMPDEST SWAP2 POP PUSH2 0x39AD DUP3 PUSH2 0x396E JUMP JUMPDEST PUSH1 0x20 DUP3 ADD SWAP1 POP SWAP2 SWAP1 POP JUMP JUMPDEST PUSH0 PUSH1 0x20 DUP3 ADD SWAP1 POP DUP2 DUP2 SUB PUSH0 DUP4 ADD MSTORE PUSH2 0x39CF DUP2 PUSH2 0x3996 JUMP JUMPDEST SWAP1 POP SWAP2 SWAP1 POP JUMP JUMPDEST PUSH0 PUSH2 0x39E0 DUP3 PUSH2 0x31D9 JUMP JUMPDEST SWAP2 POP PUSH2 0x39EB DUP4 PUSH2 0x31D9 JUMP JUMPDEST SWAP3 POP DUP3 DUP3 MUL PUSH2 0x39F9 DUP2 PUSH2 0x31D9 JUMP JUMPDEST SWAP2 POP DUP3 DUP3 DIV DUP5 EQ DUP4 ISZERO OR PUSH2 0x3A10 JUMPI PUSH2 0x3A0F PUSH2 0x390E JUMP JUMPDEST JUMPDEST POP SWAP3 SWAP2 POP POP JUMP JUMPDEST PUSH32 0x4E487B7100000000000000000000000000000000000000000000000000000000 PUSH0 MSTORE PUSH1 0x12 PUSH1 0x4 MSTORE PUSH1 0x24 PUSH0 REVERT JUMPDEST PUSH0 PUSH2 0x3A4E DUP3 PUSH2 0x31D9 JUMP JUMPDEST SWAP2 POP PUSH2 0x3A59 DUP4 PUSH2 0x31D9 JUMP JUMPDEST SWAP3 POP DUP3 PUSH2 0x3A69 JUMPI PUSH2 0x3A68 PUSH2 0x3A17 JUMP JUMPDEST JUMPDEST DUP3 DUP3 DIV SWAP1 POP SWAP3 SWAP2 POP POP JUMP JUMPDEST PUSH0 PUSH2 0x3A7E DUP3 PUSH2 0x31D9 JUMP JUMPDEST SWAP2 POP PUSH2 0x3A89 DUP4 PUSH2 0x31D9 JUMP JUMPDEST SWAP3 POP DUP3 DUP3 SUB SWAP1 POP DUP2 DUP2 GT ISZERO PUSH2 0x3AA1 JUMPI PUSH2 0x3AA0 PUSH2 0x390E JUMP JUMPDEST JUMPDEST SWAP3 SWAP2 POP POP JUMP JUMPDEST PUSH0 PUSH1 0x60 DUP3 ADD SWAP1 POP PUSH2 0x3ABA PUSH0 DUP4 ADD DUP7 PUSH2 0x32F7 JUMP JUMPDEST PUSH2 0x3AC7 PUSH1 0x20 DUP4 ADD DUP6 PUSH2 0x32F7 JUMP JUMPDEST PUSH2 0x3AD4 PUSH1 0x40 DUP4 ADD DUP5 PUSH2 0x32CF JUMP JUMPDEST SWAP5 SWAP4 POP POP POP POP JUMP JUMPDEST PUSH32 0x5041595F4641494C000000000000000000000000000000000000000000000000 PUSH0 DUP3 ADD MSTORE POP JUMP JUMPDEST PUSH0 PUSH2 0x3B10 PUSH1 0x8 DUP4 PUSH2 0x35E5 JUMP JUMPDEST SWAP2 POP PUSH2 0x3B1B DUP3 PUSH2 0x3ADC JUMP JUMPDEST PUSH1 0x20 DUP3 ADD SWAP1 POP SWAP2 SWAP1 POP JUMP JUMPDEST PUSH0 PUSH1 0x20 DUP3 ADD SWAP1 POP DUP2 DUP2 SUB PUSH0 DUP4 ADD MSTORE PUSH2 0x3B3D DUP2 PUSH2 0x3B04 JUMP JUMPDEST SWAP1 POP SWAP2 SWAP1 POP JUMP JUMPDEST PUSH0 PUSH1 0x40 DUP3 ADD SWAP1 POP PUSH2 0x3B57 PUSH0 DUP4 ADD DUP6 PUSH2 0x32CF JUMP JUMPDEST PUSH2 0x3B64 PUSH1 0x20 DUP4 ADD DUP5 PUSH2 0x32CF JUMP JUMPDEST SWAP4 SWAP3 POP POP POP JUMP JUMPDEST PUSH32 0x4E46545F5A45524F000000000000000000000000000000000000000000000000 PUSH0 DUP3 ADD MSTORE POP JUMP JUMPDEST PUSH0 PUSH2 0x3B9F PUSH1 0x8 DUP4 PUSH2 0x35E5 JUMP JUMPDEST SWAP2 POP PUSH2 0x3BAA DUP3 PUSH2 0x3B6B JUMP JUMPDEST PUSH1 0x20 DUP3 ADD SWAP1 POP SWAP2 SWAP1 POP JUMP JUMPDEST PUSH0 PUSH1 0x20 DUP3 ADD SWAP1 POP DUP2 DUP2 SUB PUSH0 DUP4 ADD MSTORE PUSH2 0x3BCC DUP2 PUSH2 0x3B93 JUMP JUMPDEST SWAP1 POP SWAP2 SWAP1 POP JUMP JUMPDEST PUSH32 0x50524943455F5A45524F00000000000000000000000000000000000000000000 PUSH0 DUP3 ADD MSTORE POP JUMP JUMPDEST PUSH0 PUSH2 0x3C07 PUSH1 0xA DUP4 PUSH2 0x35E5 JUMP JUMPDEST SWAP2 POP PUSH2 0x3C12 DUP3 PUSH2 0x3BD3 JUMP JUMPDEST PUSH1 0x20 DUP3 ADD SWAP1 POP SWAP2 SWAP1 POP JUMP JUMPDEST PUSH0 PUSH1 0x20 DUP3 ADD SWAP1 POP DUP2 DUP2 SUB PUSH0 DUP4 ADD MSTORE PUSH2 0x3C34 DUP2 PUSH2 0x3BFB JUMP JUMPDEST SWAP1 POP SWAP2 SWAP1 POP JUMP JUMPDEST PUSH0 DUP2 MLOAD SWAP1 POP PUSH2 0x3C49 DUP2 PUSH2 0x3267 JUMP JUMPDEST SWAP3 SWAP2 POP POP JUMP JUMPDEST PUSH0 PUSH1 0x20 DUP3 DUP5 SUB SLT ISZERO PUSH2 0x3C64 JUMPI PUSH2 0x3C63 PUSH2 0x31D5 JUMP JUMPDEST JUMPDEST PUSH0 PUSH2 0x3C71 DUP5 DUP3 DUP6 ADD PUSH2 0x3C3B JUMP JUMPDEST SWAP2 POP POP SWAP3 SWAP2 POP POP JUMP JUMPDEST PUSH32 0x4E4F545F4F574E45520000000000000000000000000000000000000000000000 PUSH0 DUP3 ADD MSTORE POP JUMP JUMPDEST PUSH0 PUSH2 0x3CAE PUSH1 0x9 DUP4 PUSH2 0x35E5 JUMP JUMPDEST SWAP2 POP PUSH2 0x3CB9 DUP3 PUSH2 0x3C7A JUMP JUMPDEST PUSH1 0x20 DUP3 ADD SWAP1 POP SWAP2 SWAP1 POP JUMP JUMPDEST PUSH0 PUSH1 0x20 DUP3 ADD SWAP1 POP DUP2 DUP2 SUB PUSH0 DUP4 ADD MSTORE PUSH2 0x3CDB DUP2 PUSH2 0x3CA2 JUMP JUMPDEST SWAP1 POP SWAP2 SWAP1 POP JUMP JUMPDEST PUSH0 PUSH1 0x40 DUP3 ADD SWAP1 POP PUSH2 0x3CF5 PUSH0 DUP4 ADD DUP6 PUSH2 0x32F7 JUMP JUMPDEST PUSH2 0x3D02 PUSH1 0x20 DUP4 ADD DUP5 PUSH2 0x32F7 JUMP JUMPDEST SWAP4 SWAP3 POP POP POP JUMP JUMPDEST PUSH0 DUP2 MLOAD SWAP1 POP PUSH2 0x3D17 DUP2 PUSH2 0x3540 JUMP JUMPDEST SWAP3 SWAP2 POP POP JUMP JUMPDEST PUSH0 PUSH1 0x20 DUP3 DUP5 SUB SLT ISZERO PUSH2 0x3D32 JUMPI PUSH2 0x3D31 PUSH2 0x31D5 JUMP JUMPDEST JUMPDEST PUSH0 PUSH2 0x3D3F DUP5 DUP3 DUP6 ADD PUSH2 0x3D09 JUMP JUMPDEST SWAP2 POP POP SWAP3 SWAP2 POP POP JUMP JUMPDEST PUSH32 0x4E4F545F415050524F5645440000000000000000000000000000000000000000 PUSH0 DUP3 ADD MSTORE POP JUMP JUMPDEST PUSH0 PUSH2 0x3D7C PUSH1 0xC DUP4 PUSH2 0x35E5 JUMP JUMPDEST SWAP2 POP PUSH2 0x3D87 DUP3 PUSH2 0x3D48 JUMP JUMPDEST PUSH1 0x20 DUP3 ADD SWAP1 POP SWAP2 SWAP1 POP JUMP JUMPDEST PUSH0 PUSH1 0x20 DUP3 ADD SWAP1 POP DUP2 DUP2 SUB PUSH0 DUP4 ADD MSTORE PUSH2 0x3DA9 DUP2 PUSH2 0x3D70 JUMP JUMPDEST SWAP1 POP SWAP2 SWAP1 POP JUMP JUMPDEST PUSH32 0x414C52454144595F4C4953544544000000000000000000000000000000000000 PUSH0 DUP3 ADD MSTORE POP JUMP JUMPDEST PUSH0 PUSH2 0x3DE4 PUSH1 0xE DUP4 PUSH2 0x35E5 JUMP JUMPDEST SWAP2 POP PUSH2 0x3DEF DUP3 PUSH2 0x3DB0 JUMP JUMPDEST PUSH1 0x20 DUP3 ADD SWAP1 POP SWAP2 SWAP1 POP JUMP JUMPDEST PUSH0 PUSH1 0x20 DUP3 ADD SWAP1 POP DUP2 DUP2 SUB PUSH0 DUP4 ADD MSTORE PUSH2 0x3E11 DUP2 PUSH2 0x3DD8 JUMP JUMPDEST SWAP1 POP SWAP2 SWAP1 POP JUMP JUMPDEST PUSH32 0x4E4F545F4C495354454400000000000000000000000000000000000000000000 PUSH0 DUP3 ADD MSTORE POP JUMP JUMPDEST PUSH0 PUSH2 0x3E4C PUSH1 0xA DUP4 PUSH2 0x35E5 JUMP JUMPDEST SWAP2 POP PUSH2 0x3E57 DUP3 PUSH2 0x3E18 JUMP JUMPDEST PUSH1 0x20 DUP3 ADD SWAP1 POP SWAP2 SWAP1 POP JUMP JUMPDEST PUSH0 PUSH1 0x20 DUP3 ADD SWAP1 POP DUP2 DUP2 SUB PUSH0 DUP4 ADD MSTORE PUSH2 0x3E79 DUP2 PUSH2 0x3E40 JUMP JUMPDEST SWAP1 POP SWAP2 SWAP1 POP JUMP JUMPDEST PUSH32 0x4E4F545F41435449564500000000000000000000000000000000000000000000 PUSH0 DUP3 ADD MSTORE POP JUMP JUMPDEST PUSH0 PUSH2 0x3EB4 PUSH1 0xA DUP4 PUSH2 0x35E5 JUMP JUMPDEST SWAP2 POP PUSH2 0x3EBF DUP3 PUSH2 0x3E80 JUMP JUMPDEST PUSH1 0x20 DUP3 ADD SWAP1 POP SWAP2 SWAP1 POP JUMP JUMPDEST PUSH0 PUSH1 0x20 DUP3 ADD SWAP1 POP DUP2 DUP2 SUB PUSH0 DUP4 ADD MSTORE PUSH2 0x3EE1 DUP2 PUSH2 0x3EA8 JUMP JUMPDEST SWAP1 POP SWAP2 SWAP1 POP JUMP JUMPDEST PUSH32 0x414C52454144595F505552434841534544000000000000000000000000000000 PUSH0 DUP3 ADD MSTORE POP JUMP JUMPDEST PUSH0 PUSH2 0x3F1C PUSH1 0x11 DUP4 PUSH2 0x35E5 JUMP JUMPDEST SWAP2 POP PUSH2 0x3F27 DUP3 PUSH2 0x3EE8 JUMP JUMPDEST PUSH1 0x20 DUP3 ADD SWAP1 POP SWAP2 SWAP1 POP JUMP JUMPDEST PUSH0 PUSH1 0x20 DUP3 ADD SWAP1 POP DUP2 DUP2 SUB PUSH0 DUP4 ADD MSTORE PUSH2 0x3F49 DUP2 PUSH2 0x3F10 JUMP JUMPDEST SWAP1 POP SWAP2 SWAP1 POP JUMP JUMPDEST PUSH32 0x4241445F56414C55450000000000000000000000000000000000000000000000 PUSH0 DUP3 ADD MSTORE POP JUMP JUMPDEST PUSH0 PUSH2 0x3F84 PUSH1 0x9 DUP4 PUSH2 0x35E5 JUMP JUMPDEST SWAP2 POP PUSH2 0x3F8F DUP3 PUSH2 0x3F50 JUMP JUMPDEST PUSH1 0x20 DUP3 ADD SWAP1 POP SWAP2 SWAP1 POP JUMP JUMPDEST PUSH0 PUSH1 0x20 DUP3 ADD SWAP1 POP DUP2 DUP2 SUB PUSH0 DUP4 ADD MSTORE PUSH2 0x3FB1 DUP2 PUSH2 0x3F78 JUMP JUMPDEST SWAP1 POP SWAP2 SWAP1 POP JUMP JUMPDEST PUSH32 0x53454C465F425559000000000000000000000000000000000000000000000000 PUSH0 DUP3 ADD MSTORE POP JUMP JUMPDEST PUSH0 PUSH2 0x3FEC PUSH1 0x8 DUP4 PUSH2 0x35E5 JUMP JUMPDEST SWAP2 POP PUSH2 0x3FF7 DUP3 PUSH2 0x3FB8 JUMP JUMPDEST PUSH1 0x20 DUP3 ADD SWAP1 POP SWAP2 SWAP1 POP JUMP JUMPDEST PUSH0 PUSH1 0x20 DUP3 ADD SWAP1 POP DUP2 DUP2 SUB PUSH0 DUP4 ADD MSTORE PUSH2 0x4019 DUP2 PUSH2 0x3FE0 JUMP JUMPDEST SWAP1 POP SWAP2 SWAP1 POP JUMP JUMPDEST PUSH32 0x4E4F545F53454C4C455200000000000000000000000000000000000000000000 PUSH0 DUP3 ADD MSTORE POP JUMP JUMPDEST PUSH0 PUSH2 0x4054 PUSH1 0xA DUP4 PUSH2 0x35E5 JUMP JUMPDEST SWAP2 POP PUSH2 0x405F DUP3 PUSH2 0x4020 JUMP JUMPDEST PUSH1 0x20 DUP3 ADD SWAP1 POP SWAP2 SWAP1 POP JUMP JUMPDEST PUSH0 PUSH1 0x20 DUP3 ADD SWAP1 POP DUP2 DUP2 SUB PUSH0 DUP4 ADD MSTORE PUSH2 0x4081 DUP2 PUSH2 0x4048 JUMP JUMPDEST SWAP1 POP SWAP2 SWAP1 POP JUMP JUMPDEST PUSH32 0x4E487B7100000000000000000000000000000000000000000000000000000000 PUSH0 MSTORE PUSH1 0x32 PUSH1 0x4 MSTORE PUSH1 0x24 PUSH0 REVERT JUMPDEST PUSH32 0x4E4F545F494E5F455343524F5700000000000000000000000000000000000000 PUSH0 DUP3 ADD MSTORE POP JUMP JUMPDEST PUSH0 PUSH2 0x40E9 PUSH1 0xD DUP4 PUSH2 0x35E5 JUMP JUMPDEST SWAP2 POP PUSH2 0x40F4 DUP3 PUSH2 0x40B5 JUMP JUMPDEST PUSH1 0x20 DUP3 ADD SWAP1 POP SWAP2 SWAP1 POP JUMP JUMPDEST PUSH0 PUSH1 0x20 DUP3 ADD SWAP1 POP DUP2 DUP2 SUB PUSH0 DUP4 ADD MSTORE PUSH2 0x4116 DUP2 PUSH2 0x40DD JUMP JUMPDEST SWAP1 POP SWAP2 SWAP1 POP JUMP JUMPDEST PUSH32 0x4E4F545F44495350555445440000000000000000000000000000000000000000 PUSH0 DUP3 ADD MSTORE POP JUMP JUMPDEST PUSH0 PUSH2 0x4151 PUSH1 0xC DUP4 PUSH2 0x35E5 JUMP JUMPDEST SWAP2 POP PUSH2 0x415C DUP3 PUSH2 0x411D JUMP JUMPDEST PUSH1 0x20 DUP3 ADD SWAP1 POP SWAP2 SWAP1 POP JUMP JUMPDEST PUSH0 PUSH1 0x20 DUP3 ADD SWAP1 POP DUP2 DUP2 SUB PUSH0 DUP4 ADD MSTORE PUSH2 0x417E DUP2 PUSH2 0x4145 JUMP JUMPDEST SWAP1 POP SWAP2 SWAP1 POP JUMP JUMPDEST PUSH0 PUSH1 0x20 DUP3 ADD SWAP1 POP PUSH2 0x4198 PUSH0 DUP4 ADD DUP5 PUSH2 0x33E3 JUMP JUMPDEST SWAP3 SWAP2 POP POP JUMP JUMPDEST PUSH32 0x54494D454F55545F544F4F5F53484F5254000000000000000000000000000000 PUSH0 DUP3 ADD MSTORE POP JUMP JUMPDEST PUSH0 PUSH2 0x41D2 PUSH1 0x11 DUP4 PUSH2 0x35E5 JUMP JUMPDEST SWAP2 POP PUSH2 0x41DD DUP3 PUSH2 0x419E JUMP JUMPDEST PUSH1 0x20 DUP3 ADD SWAP1 POP SWAP2 SWAP1 POP JUMP JUMPDEST PUSH0 PUSH1 0x20 DUP3 ADD SWAP1 POP DUP2 DUP2 SUB PUSH0 DUP4 ADD MSTORE PUSH2 0x41FF DUP2 PUSH2 0x41C6 JUMP JUMPDEST SWAP1 POP SWAP2 SWAP1 POP JUMP JUMPDEST PUSH0 DUP2 PUSH1 0x60 SHL SWAP1 POP SWAP2 SWAP1 POP JUMP JUMPDEST PUSH0 PUSH2 0x421C DUP3 PUSH2 0x4206 JUMP JUMPDEST SWAP1 POP SWAP2 SWAP1 POP JUMP JUMPDEST PUSH0 PUSH2 0x422D DUP3 PUSH2 0x4212 JUMP JUMPDEST SWAP1 POP SWAP2 SWAP1 POP JUMP JUMPDEST PUSH2 0x4245 PUSH2 0x4240 DUP3 PUSH2 0x3256 JUMP JUMPDEST PUSH2 0x4223 JUMP JUMPDEST DUP3 MSTORE POP POP JUMP JUMPDEST PUSH0 DUP2 SWAP1 POP SWAP2 SWAP1 POP JUMP JUMPDEST PUSH2 0x4265 PUSH2 0x4260 DUP3 PUSH2 0x31D9 JUMP JUMPDEST PUSH2 0x424B JUMP JUMPDEST DUP3 MSTORE POP POP JUMP JUMPDEST PUSH0 PUSH2 0x4276 DUP3 DUP6 PUSH2 0x4234 JUMP JUMPDEST PUSH1 0x14 DUP3 ADD SWAP2 POP PUSH2 0x4286 DUP3 DUP5 PUSH2 0x4254 JUMP JUMPDEST PUSH1 0x20 DUP3 ADD SWAP2 POP DUP2 SWAP1 POP SWAP4 SWAP3 POP POP POP JUMP INVALID LOG2 PUSH5 0x6970667358 0x22 SLT KECCAK256 0xDF RETURN 0xCB SWAP2 CALLDATASIZE 0x2B 0xD4 0x4B PUSH12 0x3CC83BB5F26B7C0FC9ACF1D6 SGT SWAP16 0x24 0xB9 SLT 0xD DUP6 0xD2 PC 0xA7 0xEF PUSH5 0x736F6C6343 STOP ADDMOD XOR STOP CALLER "},"methodIdentifiers":{"autoRelease(address,uint256)":"7814ebe6","autoReleaseTimeout()":"e21e2580","buyItem(address,uint256)":"9f37092a","cancelListing(address,uint256)":"b2ddee06","confirmDelivery(address,uint256)":"b6b9ad03","emergencyRefund(address,uint256)":"67f8a8b8","getFullListingInfo(address,uint256)":"95306532","getListing(address,uint256)":"88700d1c","getListingByIndex(uint256)":"b82eb9f8","getPurchase(address,uint256)":"2a2a92cc","listItem(address,uint256,uint256)":"89bfd38f","listingCount()":"a9b07c26","markDelivered(address,uint256)":"bb633923","owner()":"8da5cb5b","platformFeeBps()":"22dcd13e","raiseDispute(address,uint256)":"16eddaee","renounceOwnership()":"715018a6","resolveDispute(address,uint256,bool)":"c9754f1a","setAutoReleaseTimeout(uint256)":"fb20190a","setPlatformFee(uint256)":"12e8e2c3","totalFeesCollected()":"60c6d8ae","transferOwnership(address)":"f2fde38b","withdrawFees()":"476343ee"}}}}}